:020000040800F2
:10000000080D0020010300089D510008394B00082D
:1000100075500008BD1500080563000800000000C9
:100020000000000000000000000000006D53000808
:1000300071180008000000002553000871530008E3
:100040001B0300081B0300081B0300081B03000818
:100050001B0300081B0300081B0300081B03000808
:100060001B0300081B0300081B0300081B030008F8
:100070001B0300081B0300081B0300081B030008E8
:100080001B0300081B0300081B0300081B030008D8
:100090001B0300081B0300081B0300081B030008C8
:1000A0001B0300081B0300081B0300081B030008B8
:1000B0001B03000849540008595400081B0300089A
:1000C0001B0300081B0300081B0300081B03000898
:1000D0001B030008E56200081B030008F562000826
:1000E0001B0300081B0300081B0300081B03000878
:1000F0001B030008795400081B0300081B030008B9
:100100001B0300081B030008695400081B030008B8
:100110001B0300081B0300081B0300081B03000847
:100120001B0300081B0300081B0300081B03000837
:100130001B0300081B0300081B0300081B03000827
:100140001B0300081B0300081B0300081B03000817
:100150001B0300081B030008C91600081B03000846
:100160001B0300081B0300081B0300081B030008F7
:100170001B0300081B0300081B030008000000000D
:100180001B0300081B03000800F002F800F0A8F8A9
:1001900014A696E8000CB244B344DA4501D100F04D
:1001A0009FF8BAE80F000FA696E83000A5EB04050B
:1001B00004EB0607AAEB0704A7F101074FEA1515A0
:1001C0004FEA3414A4F10104AC4201D300F088F8E2
:1001D00013F0010F18BFFB1A43F0010300F001F800
:1001E000DBE718479C750000BC750000103A24BF7F
:1001F00078C878C1FAD8520724BF30C830C144BF8C
:1002000004680C6070470000704700000023002461
:1002100000250026103A28BF78C1FBD8520728BF16
:1002200030C148BF0B6070476E2900F0FF81702914
:1002300000F04183662907F00782652907F00482F0
:10024000672907F00182612907F0008203681B0A11
:1002500028BF41F08001692900F0AC81642900F0D9
:10026000A981752900F0A6816F2900F0CF82782935
:1002700000F00D83E92900F06982E42900F066822C
:10028000F52900F06382EF2900F0CC82F82900F014
:100290000C830368DB0928BF41F08001632901F06A
:1002A0000D80732901F01280E32901F01D80F329EC
:1002B00001F02280002070471FB507F0B8F901F067
:1002C00071F804000020002107F024F9401C606050
:1002D0000020002107F008F9E0601FBD10B510BD37
:1002E00001F032F81146FFF7E7FF06F063FB01F07B
:1002F0000FF903B4FFF7F2FF03BC01F057F9000058
:100300000948804709480047FEE7FEE7FEE7FEE7A9
:10031000FEE7FEE7FEE7FEE7FEE7FEE704480549E5
:10032000054A064B70470000355400088901000853
:1003300008070020080D00200809002008090020F7
:1003400053EA020C00F069802DE9F04B4FF00006F3
:10035000002B1FBFB3FA83F503FA05F424FA05F660
:100360005E4012BF1643B2FA82F502FA05F4C5F1F7
:1003700020051EBF22FA05FC44EA0C04203556EA8B
:10038000044C4FEA144418BF641C4FF000084FF0AF
:100390000009904271EB030C39D3002919BFB1FA5F
:1003A00081F701FA07F6B0FA80F700FA07F6C7F10D
:1003B00020071EBF20FA07FC46EA0C062037B6FBD2
:1003C000F4FCA7EB0507103F07F01F0BCBF120064D
:1003D0002CFA06F60CFA0BFB44BFB3460026202F7E
:1003E000A4BF5E464FF0000B5BEA060C08BF4FF05F
:1003F000010B19EB0B0948EB0608ABFB027C06FB73
:1004000002CC0BFB03CCC01B71EB0C01C1E70B460C
:10041000024641464846BDE8F08B13B5084318BF75
:100420004FF0FF300146AFF30080BDE81C4070473D
:100430000FB41CB5084B06AA7B446946009005988A
:1004400000F00DF904460020694600F01BF9204633
:100450001CBC5DF814FB00004902000010B5431CF1
:1004600002E010F8011B71B18107FAD14FF001329F
:1004700002C88C1A8C4314EAC211F9D0C01A0A06B9
:1004800003D0C01E10BDC01A10BD0A0401D0801ECA
:1004900010BD0902FCD0401E10BD4FF0000200B597
:1004A000134694469646203922BFA0E80C50A0E897
:1004B0000C50B1F12001BFF4F7AF090728BFA0E845
:1004C0000C5048BF0CC05DF804EB890028BF40F811
:1004D000042B08BF704748BF20F8022B11F0804F53
:1004E00018BF00F8012B704770477047704770B510
:1004F000044685690068C10601D5302600E0202643
:10050000C00707D070BDD4E9012130469047206A6A
:10051000401C20626D1EF6D570BD70B5044685691D
:100520000078C00707D170BDD4E901212020904791
:10053000206A401C20626D1EF6D570BD09684A0510
:1005400001D540B27047C905FCD500B270470968B3
:100550004A0501D5C0B27047C905FCD580B27047C5
:1005600070B50C460546012A05D02878800600D5CE
:10057000EA69002302E0012305E05B1C934202D2FA
:10058000E05C0028F9D1A869E618C01AA861286AB9
:10059000184428622846FFF7AAFF04E0D5E90121A4
:1005A00014F8010B9047B442F8D32846FFF7B5FF83
:1005B00070BD00002DE9F041064600241068752941
:1005C000314616A510D0FFF7B9FF002802DA4042E5
:1005D00013A507E031688A0701D512A502E0490793
:1005E00004D511A5012401E0FFF7B1FF00210A2283
:1005F00006F1240709E0B0FBF2FCB0FBF2F302FBCA
:100600001C00303078541846491C0028F3D123468A
:100610002A463046BDE8F04100F061BA0000000013
:100620002D0000002B00000020000000116802686F
:10063000006A530501D508700AE0D30501D508808A
:1006400006E0130603D5C217C1E9000200E0086006
:100650000120704701694A1C02610878704700B5A3
:100660008FB0CDE901310021059105497944CDE9EB
:1006700003101146684600F029F90FB000BD0000D4
:10068000E5FFFFFF0A6802F8010B0A6070470000EF
:100690002DE9FF5F15468A460446DFF8AC80F84432
:1006A0000027D8E900103E46CDE9001010E03AF8E6
:1006B00016106A4602A800F023FE411C07D02178DC
:1006C000890603D5E269391891420DD80744761C92
:1006D0002078800602D5E069B84205DDAE42E6DB4F
:1006E0003AF816000028E2D1A069C01BA06120469C
:1006F000FFF7FDFED8E90010CDE90010002017E05B
:100700003AF818106A4602A800F0FAFDB0F1FF3F6F
:1007100081460BD000250DF1080B05E0D4E901213D
:100720001BF8050090476D1C4D45F7D308F10100FB
:10073000B0428046E4DB206A384420622046FFF75E
:10074000ECFEBDE8FF9F0000AE6F00002DE9F04118
:100750008046D21D22F007020025D2E90002F529C9
:1007600015A614D0011E72F1000106DA0023D0EBA9
:10077000030063EB020211A608E0D8F800108B0713
:1007800001D50FA602E0490701D50EA601251146A5
:10079000002408F1240704E000F05CF930323A55F7
:1007A000641C50EA0102F7D12B46324621464046EE
:1007B000BDE8F04100F093B9000000002D000000FA
:1007C0002B0000002000000030B4002100F12404C0
:1007D00008E002F00705D208303542EA4372DB0830
:1007E0006554491C52EA0305F3D10468002310A2A2
:1007F000250708D504F020040C4304D0C469012364
:100800000CA2641EC46130BC00F069B910B5044686
:1008100021461068FFF79BFE02462046BDE81040C7
:100820000023D1E7D21D22F00701D1E90023CBE755
:100830000000000030000000F0B40D4601880905FA
:1008400002D5214C7C4402E01F4C7C440E34002134
:1008500000F1240608E002F00F071209E75D42EA02
:1008600003721B097754491C52EA0307F3D102783B
:100870000023120704D5702D06D009B102231134CC
:100880002246F0BC00F02BB901231034F8E770B514
:1008900004460D4621461068FFF759FE02462946D8
:1008A0002046BDE870400023C6E7D21D22F00703B2
:1008B000D3E90023C0E70368126843F02003036014
:1008C0000823C3610023B7E7106E00002DE9F05F35
:1008D000894604464FF0000ADFF874B1FB44C0F8C3
:1008E00020A02046E1688847002874D0252806D03B
:1008F000D4E901219047206A401C2062F1E70026DC
:100900005F462046E16888472028054607DB312DF1
:1009100005D2781910F8200C08B10643F1E7B007AA
:1009200001D526F00406C4F81CA00027C4F818A0BE
:100930002A2D09D0284606F0CFFD38B304EB8708EE
:10094000303DC8F8185019E059F8041B204604EB54
:1009500087029161E1688847012F054618D1E06957
:10096000002820DA26F020061DE0D8F8180000EB59
:10097000800005EB40003038C8F818002046E168D8
:100980008847054606F0A8FD0028EED1012F0AD0C1
:100990002E2D08D12046E16888477F1C0546022F8E
:1009A00046F02006C4DBA069002803DA404246F086
:1009B0000106A061F00701D026F010066C2D0BD0C7
:1009C000682D09D04C2D39D06A2D35D0742D35D0F5
:1009D0007A2D33D016E038E0E1682F46204688476C
:1009E000B842054609D16C2F26D04FF48060E168EB
:1009F000064320468847054604E06C2F1AD04FF482
:100A0000807006430DB3A5F14100192802D82035A6
:100A100046F400664A462946204626604E46FFF7C1
:100A200003FC80B101280BD0F61D26F0070000F171
:100A3000080956E74020E4E78020D8E70020D6E701
:100A400006F104094DE7284652E7206ABDE8F09F09
:100A5000A06D000030B5B0F10A0271F100034FEA59
:100A6000900E4EEA817EB0EB0E0061EB91014FEAF1
:100A7000101E4EEA017E10EB0E0041EB11114FEA01
:100A8000102E4EEA016E10EB0E0041EB11214FEAE1
:100A9000104E4EEA014E10EB0E0041EB1141401892
:100AA00041F100014FEAD00040EA41704FEAD10124
:100AB0004FEA810444EA907410EB800544EB010492
:100AC0006D1944EB0404521BA3414FF0000348BFCF
:100AD0000A3200D530BD401C41F1000130BD2DE986
:100AE000F0470D4699469246044600F124080168F5
:100AF000880604D5E06921F01001216000E00120A2
:100B0000A84201DD471B00E00027A1697A1902EB2A
:100B10000900081AA0612078C00602D42046FFF719
:100B2000E6FC002608E0D4E901211AF80600904707
:100B3000206A401C761C20624E45F4DB2078C006FB
:100B40000AD52046FFF7D3FC06E0D4E90121302086
:100B50009047206A401C2062381EA7F10107F4DC90
:100B600007E0D4E9012118F805009047206A401CED
:100B70002062281EA5F10105F3DC2046FFF7CDFC1D
:100B80002078000602D50220BDE8F0870120FBE7AF
:100B90002DE9FF4F0C461E464FF0FF378BB0D2E9D0
:100BA0000001DDF860800A908A46C1F30A5505B954
:100BB0003D46002108464FF00000BAF1000F00F456
:100BC000400005DA00EB80004FF4400101EA5000DC
:100BD0004FEA9059B9F1010F00DDB9460A9850EA81
:100BE0004A000ED044F61050A5F2FF3545432F14AD
:100BF000B8F1000F1ED07542291E1EDDC9F100029A
:100C00001CE0B8F1010F4FF0000001D0302103E0EB
:100C1000F24305E02154401CB042FBDB3046002289
:100C2000002121540B99C1F80880C1E900200FB0C0
:100C3000BDE8F08FBD1B6D1CDEE74A4600DA694255
:100C400006A800F0F3FB06AB93E8070003AB83E8CC
:100C5000070050460A9906F05FF88DE80700A0F5F6
:100C600000501F3800900398002D0ADD42F21F014A
:100C70004A460844002303A90390684606F0C8FAD0
:100C800009E0A0F500504A461F38002303A903904D
:100C9000684606F0D2FA8DE807000004000C03D085
:100CA0004FF0FF30410800E01046B8F1000F03D0CC
:100CB0000022009215461EE0751E05D4FFF7CAFEFD
:100CC000303262556D1EF9D5B3460122084302D079
:100CD00000227F1C04E02078302801D100227F1EF2
:100CE000002A099784D01DE0112D07DAFFF7B2FE24
:100CF000303262556D1C50EA0102F5D1084302D032
:100D00000098C8B10EE00021681E05E0235C625C1B
:100D100063542254401E491C8142F7DBAB46A81B9A
:100D2000401E0990002004F80B000B98099AC0F8A7
:100D30000880C0E9002B7AE711264FF0000857E73A
:100D40002DE9F04F88460446D21D22F0070191B0EC
:100D5000D1E90001CDE90A0106F0A6FB02460B9895
:100D6000C00F01D02D2007E02068810701D52B207E
:100D700002E0202101EAC000032A099001D0072ADD
:100D800005DB03464146204600F010FB0BE12078CE
:100D9000800601D5E06900E00620B8F1650F8146C4
:100DA00006D0B8F1660F18D0B8F1670F70D131E0F6
:100DB0000020B9F1110F009001DB112301E009F1CE
:100DC00001030AAA01A90CA8FFF7E2FEDDE90C70F5
:100DD000002609F10105834647E001204B460090BB
:100DE0004FF000470AAA01A90CA8FFF7D1FEDDE9E0
:100DF0000DB00C995D46002610B909F101000D18DF
:100E0000B9EB050003D4C0F1FF3609F10105A5EBEC
:100E100009002BE0B9F1010F01DA4FF001090020C0
:100E2000B9F1110F0090484601DD112300E003469F
:100E30000AAA01A90CA8FFF7ABFEDDE90C704D462C
:100E400000268346207800070AD4AB4500DA5D46C9
:100E500001A8012D04DD411911F8011C302907D02A
:100E60004F4502DA17F1040F04DA012082460FE041
:100E70006D1EEEE7002F02DCED1B3E4403E0781C04
:100E8000A84200DD7D1CB81B00F1010A4FF00047AD
:100E90002078000703D4AA4501DB4FF0FF3A002178
:100EA000B7F1004F0DF143088DF8431024D0022014
:100EB0002B23002F01DA7F422D230A21021EA0F1ED
:100EC000010000DC5FB197FBF1FC97FBF1F201FB45
:100ED0001C7C17460CF1300C08F801CDEEE7A8F1A8
:100EE000010003702188090501D5452100E0652135
:100EF000A0F1010800F8011C09980FA9A1EB08074F
:100F0000FF1D00B10120411901EBEA70A1693844CD
:100F1000081A401EA0612078C00602D42046FFF7C0
:100F2000E6FA099828B1D4E901219047206A401CCB
:100F300020622078C00622D52046FFF7D8FA1EE0AE
:100F4000002E04DBB34502DD01A8805D00E0302007
:100F5000D4E901219047206A401C2062761CAAF146
:100F600001005FEA000A0AD100F01CFAC0680168BB
:100F7000405CD4E901219047206A401C2062281E71
:100F8000A5F10105DCDC07E0D4E9012118F8010B2B
:100F90009047206A401C2062381EA7F10107F3DC4D
:100FA0002046FFF7BAFA032011B041E62DE9F04FD1
:100FB00004460D46D21D22F0070089B0D0E9009703
:100FC0004846394606F070FA0246F80F01D02D2344
:100FD00007E02068810701D52B2302E0202101EAE8
:100FE000C0038DF820300BB1012000E00020032A5F
:100FF000824601D0072A04DB2946204600F0D6F9B4
:101000003FE12078800601D40D2500E0E569C7F3B3
:101010000A560D2D49DA00214FEA175B08464FF0BA
:101020000000002F00F4400007DA00EB80004FF4CE
:10103000400100EBD07001EA60008115012901DD5B
:101040004FF0FF3100224FEA850CBCF1180F06D398
:101050001346ACF118004FF08052C24003E04FF449
:10106000801323FA0CF30CF10C0CBCF1200F04D309
:10107000ACF1200C09FA0CF001E007FA0CF00029A1
:101080004FF0004801DD18B90FE00ED140450CD3F8
:1010900019EB02095F4121B9404502D19F4329EA7A
:1010A0000209BBEB175F00D0761C2088000502D533
:1010B0007B48784402E07A487844193808AA3023FB
:1010C00002F80A30037C0AF10101002E0AF1020A3B
:1010D00053546A4602DC4FF0300101E04FF0310119
:1010E0004FF001088DF8001002D0A6F2FF3603E0A1
:1010F00059EA470100D06B4E002D02DC2178090728
:1011000004D54FF002082E218DF80110C4460021AD
:101110000BE0C7F303433F01C35C491C6D1E02F89B
:101120000830052908F1010801DA002DF1DC002161
:101130000CE000EB1973491C1B786D1E082902F89E
:1011400008304FEA091908F1010801DA002DF0DC36
:1011500021688B0602D516E0A8F10108E04505DDFF
:1011600002EB080313F8013C302BF5D0B8F1000F67
:1011700009DD02EB080313F8013C2E2B03D109070C
:1011800001D4A8F10108002D05DD3E2102F8081068
:101190006D1E08F10108407C002E02F8080008F1DD
:1011A000010804DA2D20764202F8080002E02B2024
:1011B00002F808000A214FF47A70864208F101080B
:1011C0000BDB96FBF0F3303302F8083096FBF0F3BC
:1011D00008F1010800FB136601E0642E0CDB6420BB
:1011E00096FBF0F3303302F8083096FBF0F308F189
:1011F000010800FB136601E00A2E06DB96FBF1F006
:10120000303002F8080008F1010896FBF1F001FB0C
:101210001060303002F80800A16908F1010808EBFD
:10122000050202EB0A00081AA0612078C00602D469
:101230002046FFF75CF9216A08AE01EB0A00206244
:1012400004E0D4E9012116F8010B9047BAF1010A34
:10125000F7D22078C00602D52046FFF748F96E463F
:1012600009E016F8010B3E280FD0D4E90121904780
:10127000206A401C2062B8F10108F2D22046FFF734
:101280004CF909B00320BDE8F08F206A28442062A1
:1012900003E0D4E90121302090476D1EEBD3F8E73D
:1012A000EE65000002FCFFFF10B5436913B1AFF318
:1012B000008001E0FFF754F9012010BD127800F121
:1012C00024010A7000224A700122EDE711684FF0F4
:1012D000FF32E9E710B5436913B1AFF3008001E0D5
:1012E000FFF7D6F9012010BD128800F12401828495
:1012F0000022C2840122EDE711684FF0FF32E9E7D6
:101300002DE9F04116460C46054600F043F8036807
:1013100093F80101012807D0FF2C12D8185D80B185
:1013200001202C70BDE8F081D3F807013246214638
:1013300003F20713C7182846BC46BDE8F041002356
:1013400060474FF0FF30EDE7754600F0EBF8AE4632
:1013500005006946534620F00700854618B020B5C1
:10136000FEF7DCFFBDE820404FF000064FF000071D
:101370004FF000084FF0000BAC46ACE8C009ACE8F9
:10138000C009ACE8C009ACE8C00921F007018D46EE
:101390007047000010B500F005F8001D10BD00BF3B
:1013A0007561000000487047300000202DE9F041D1
:1013B0001F46044603260168072A01F4006004DB87
:1013C00008B116A505E016A503E008B115A500E0D3
:1013D00015A521F010002060A069C01EA0610FB10A
:1013E000401EA0612046FFF782F84FB1D4E90121E9
:1013F00038469047206A401C2062C01C206206E0EC
:10140000206AFAE7D4E9012115F8010B9047761E0E
:10141000F8D22046FFF781F8BDE8F0814E414E003A
:101420006E616E00494E4600696E66002DE9F04718
:10143000814616468AB0354878440DC88DE80D00BF
:1014400032487844801C03AC0DC884E80D0041F696
:101450009B300844372190FBF1F290FBF1F5A5F1A8
:10146000800501FB12041B3C02D56442012000E010
:101470000020DFF898A080460027FA44AAF1BE0AAF
:101480000EE0E0070AD03246684607EB4701012329
:101490000AEB810105F0D1FE8DE8070064107F1C86
:1014A000002CEED1194F7F44AE3F19E0E80715D06C
:1014B00007EB04100DF1180A90E80E008AE80E0000
:1014C000C068F04201D1981908903246012306A95C
:1014D00003A805F0B2FE03AB83E807006D10641C9F
:1014E000002DE3D14FF0010332466946B8F1000FF9
:1014F00003A802D005F08CFE01E005F09EFEC9E9CC
:101500000001C9F808200AB0BDE8F087F8620000C1
:1015100010B50446AFF300802046BDE81040FEF74A
:10152000E8BE0000004870471000002000000000E6
:1015300030B44FF0013C50F8042B51F8043BCCFA86
:1015400052F4D51A20D1FCB950F8042B51F8043BC1
:10155000CCFA52F4D51A17D1B4B950F8042B51F87B
:10156000043BCCFA52F4D51A0ED16CB950F8042BC6
:1015700051F8043BCCFA52F4D51A05D1002CDAD03C
:1015800030BC4FF00000704729BAB1FA81F111F078
:101590001801D1F120008440F2D1CA40CB4012F0B2
:1015A000FF0213F0FF0330BCD01A70470149182026
:1015B000ABBEFEE72600020070470000FFE7FEE733
:1015C00084B00820ADF80C000320ADF80A0000201C
:1015D0008DF80F00019001200090FFE7019810287E
:1015E00070DCFFE79DF80F00C007D0B9FFE7009A55
:1015F00040F29000C2F200008118805CBDF80C201F
:10160000C2F10803D840497891400843019A40F25A
:101610007001C2F2000121F8120000980130009020
:101620001FE0009940F29000C2F200004318405CB5
:10163000BDF80C20C2F10801C84059789B7802F12E
:10164000080C03FA0CF3184391400843019A40F246
:101650007001C2F2000121F81200009802300090DF
:10166000FFE7019A40F27001C2F2000131F8120066
:101670006FF3DF2021F81200BDF80A00C0F1080066
:10168000ADF80C00BDF80C00C0F10B0009280ADB16
:10169000FFE7BDF80C00C0F10300ADF80A0001201F
:1016A0008DF80F0009E0BDF80C00C0F10B00ADF89B
:1016B0000A0000208DF80F00FFE7FFE701980130D6
:1016C00001908BE704B0704780B540F20010C2F281
:1016D000000000F06BF980BD82B0019001980078A5
:1016E00010384AF6AB21CAF6AA21A0FB0110000966
:1016F0000090009947F26470C0F60000405C0199C8
:10170000C8650098042807D3FFE7019908680422F8
:1017100062F30900886506E00199086840F2FF322B
:1017200090438865FFE70198806D02B07047000024
:1017300086B0059000208DF813000598806A03900C
:101740000598806910BBFFE70398029003281BD817
:101750000299DFE801F0020D0218059890F82F00B9
:10176000C00720B1FFE701208DF81300FFE70CE070
:101770000598C06AB0F1C07F04D1FFE701208DF861
:101780001300FFE701E000E0FFE745E0059880690E
:10179000B0F5005F25D1FFE70398019003281ED81C
:1017A0000199DFE801F00206021101208DF8130013
:1017B00016E0059890F82F00C00720B1FFE7012040
:1017C0008DF81300FFE70BE00598C06AB0F1C07F09
:1017D00004D1FFE701208DF81300FFE700E0FFE7E9
:1017E00019E003980090032804D3FFE7009803282A
:1017F00004D00EE001208DF813000BE0059890F85E
:101800002F00C00720B1FFE701208DF81300FFE78C
:1018100000E0FFE7FFE7FFE79DF8130006B0704721
:1018200084B00390029101920093039801680868C4
:1018300020F48020086000980399096848600398A4
:101840008068402809D1FFE70198039909688860FA
:10185000029803990968C86008E00298039909682A
:101860008860019803990968C860FFE704B0704771
:101870007047000072B6FFE7FEE7000080B584B055
:1018800002900298806D019000F016FD0090029881
:1018900090F8350002280DD0FFE7029980204865B6
:1018A000FFE70299002081F83400FFE701208DF85E
:1018B0000F0055E002980168086820F016000860E3
:1018C00002980168486920F0800048610298006C25
:1018D00020B9FFE70298806C38B1FFE702980168F1
:1018E000086820F008000860FFE7029801680868AF
:1018F00020F001000860FFE7029800680068C00758
:10190000C8B1FFE700F0D8FC0099401A062811D3AF
:10191000FFE70299202048650299032081F83500ED
:10192000FFE70299002081F83400FFE703208DF8DB
:101930000F0015E0E0E70298C16D3F208840019953
:1019400088600299012081F83500FFE702990020A4
:1019500081F83400FFE7FFE700208DF80F00FFE774
:101960009DF80F0004B080BD82B00090009890F800
:101970003500022807D0FFE7009980204865012044
:101980008DF807000EE00099052081F835000098D9
:101990000168086820F001000860FFE700208DF86A
:1019A0000700FFE79DF8070002B0704780B586B0DA
:1019B00005900020039040F20000C2F20000006891
:1019C00048F2B511C1F64E31A0FB0110800A029019
:1019D0000598806D0190019800680490049805991D
:1019E000C96DC840000700281AD5FFE705980068B0
:1019F00000684007002812D5FFE7059801680868CD
:101A000020F0040008600598C16D08208840019905
:101A100088600599486D40F001004865FFE7FFE7E1
:101A200004980599C96DC840C007A0B1FFE70598A3
:101A300000684069000600280CD5FFE70598C16DD5
:101A400001208840019988600599486D40F00200A6
:101A50004865FFE7FFE704980599C96DC84040074E
:101A6000002814D5FFE70598006800688007002863
:101A70000CD5FFE70598C16D042088400199886066
:101A80000599486D40F004004865FFE7FFE70498BA
:101A90000599C96DC840C006002847D5FFE70598DD
:101AA00000680068000700283FD5FFE70598C16D72
:101AB00010208840019988600598006800684003FC
:101AC00000281AD5FFE70598006800680003002881
:101AD00009D4FFE70598006C20B1FFE70598016C79
:101AE0008847FFE708E00598806C20B1FFE705987C
:101AF000816C8847FFE7FFE716E0059800680068FB
:101B0000C005002807D4FFE705980168086820F0A1
:101B100008000860FFE70598006C20B1FFE7059812
:101B2000016C8847FFE7FFE7FFE7FFE704980599A7
:101B3000C96DC8408006002840F18D80FFE70598F8
:101B400000680068C006002840F18480FFE705981F
:101B5000C16D2020884001998860059890F8350073
:101B6000052834D1FFE705980168086820F01600C1
:101B7000086005980168486920F080004861059870
:101B8000006C20B9FFE70598806C38B1FFE7059835
:101B90000168086820F008000860FFE70598C16D3B
:101BA0003F208840019988600599012081F835001F
:101BB000FFE70599002081F83400FFE70598006DE4
:101BC00020B1FFE70598016D8847FFE77BE00598A6
:101BD00000680068400300281AD5FFE705980068F0
:101BE00000680003002809D4FFE70598406C20B185
:101BF000FFE70598416C8847FFE708E00598C06B50
:101C000020B1FFE70598C16B8847FFE7FFE720E0B9
:101C1000059800680068C005002811D4FFE7059802
:101C20000168086820F0100008600599012081F81B
:101C30003500FFE70599002081F83400FFE7FFE752
:101C40000598C06B20B1FFE70598C16B8847FFE797
:101C5000FFE7FFE7FFE70598406DA0B3FFE70598B2
:101C6000406DC00730B3FFE70599052081F83500C6
:101C700005980168086820F001000860FFE70398F4
:101C8000013003900299884201D9FFE707E0FFE79E
:101C9000059800680068C0070028F0D1FFE70599A3
:101CA000012081F83500FFE70599002081F8340014
:101CB000FFE7FFE70598C06C20B1FFE70598C16C0E
:101CC0008847FFE7FFE706B080BD000080B586B01B
:101CD00004900020039000F0EFFA0290049820B9DD
:101CE000FFE701208DF81700A3E00498406A08B1CF
:101CF000FFE7FFE70499022081F83500FFE7049928
:101D0000002081F83400FFE704980168086820F09B
:101D100001000860FFE7049800680068C00790B100
:101D2000FFE700F0C9FA0299401A06280AD3FFE734
:101D30000499202048650499032081F835008DF826
:101D4000170076E0E7E704980068006803900398BE
:101D500048F23F01CFF2100108400390049900912E
:101D60004868D1F808C0CB680A6940EA0C001843FB
:101D700010434A6910438A691043CA691043096ACB
:101D800001430398084303900498406A042808D14B
:101D9000FFE70499C86A096B01430398084303905D
:101DA000FFE703980499096808600498006840698F
:101DB0000390039820F0070003900498416A039869
:101DC000084303900498406A04281AD1FFE7049856
:101DD000816A0398084303900498C06A80B1FFE7C2
:101DE0000498FFF7A5FC50B1FFE70499402048652F
:101DF0000499012081F835008DF8170019E0FFE7FC
:101E0000FFE703980499096848610498FFF764FCA8
:101E100001900498C16D3F20884001998860049921
:101E200000204865049A012182F835108DF81700CA
:101E3000FFE79DF8170006B080BD000080B588B0B0
:101E4000069005910492039300208DF80B000698EC
:101E5000806D0190FFE7069890F83400012804D1C6
:101E6000FFE702208DF81F0045E00699012081F868
:101E70003400FFE7FFE7069890F8350001282BD1E2
:101E8000FFE70699022081F8350006990020486591
:101E900006980599049A039BFFF7C2FC0698C16D4A
:101EA0003F2088400199886006980168086840F0E2
:101EB000160008600698006C38B1FFE706980168C4
:101EC000086840F008000860FFE7069801680868A5
:101ED00040F00100086009E0FFE70699002081F862
:101EE0003400FFE702208DF80B00FFE79DF80B00A0
:101EF0008DF81F00FFE79DF81F0008B080BD0000AF
:101F00008EB00D900C9100200A90099008900B90D3
:101F1000FFE70B980F2800F2CC81FFE70B99012017
:101F200088400A900C9800680A990840099009981E
:101F30000A99884240F0B881FFE70C98406800F0A9
:101F40000300012807D0FFE70C98406800F0030069
:101F500002282FD1FFE70D98806808900B98410068
:101F6000032000FA01F10898884308900C98C06893
:101F70000B99490000FA01F1089808430890089865
:101F80000D9988600D98406808900B99012000FA1F
:101F900001F10898884308900C984068C0F300103D
:101FA0000B9900FA01F108980843089008980D99D8
:101FB0004860FFE70C98406800F00300032818D041
:101FC000FFE70D98C06808900B984100032000FAC5
:101FD00001F10898884308900C9880680B99490093
:101FE00000FA01F108980843089008980D99C86014
:101FF000FFE70C98406800F00300022826D1FFE7B5
:102000000D980B996FF0030202EA51010844006A2F
:1020100008900B9800F0070081000F2000FA01F1F2
:102020000898884308900C9800690B9901F0070103
:10203000890000FA01F108980843089008980D9962
:102040000B9B02EA530211440862FFE70D980068F7
:1020500008900B984100032000FA01F1089888438A
:1020600008900C98406800F003000B99490000FAB2
:1020700001F108980843089008980D9908600C9899
:1020800080798007002800F00E81FFE7FFE700203D
:10209000079043F64400C4F20200016841F4804115
:1020A0000160006800F4804007900798FFE70B98F4
:1020B00020F0030043F60801C4F2010140580890E3
:1020C0000B9800F0030081000F2000FA01F108983E
:1020D000884308900D980021C4F20201884203D180
:1020E000FFE7002006905EE00D9840F20041C4F248
:1020F0000201884203D1FFE70120059050E00D98CE
:1021000040F60001C4F20201884203D1FFE7022039
:10211000049042E00D9840F60041C4F2020188426A
:1021200003D1FFE70320039034E00D9841F2000152
:10213000C4F20201884203D1FFE70420029026E0A6
:102140000D9841F20041C4F20201884203D1FFE739
:102150000520019018E00D9841F60001C4F202013B
:10216000884203D1FFE7062000900AE00D9941F66E
:102170000042C4F202020820914208BF07200090EA
:10218000FFE700980190FFE701980290FFE70298AF
:102190000390FFE703980490FFE704980590FFE79A
:1021A00005980690FFE70698C0B20B9901F003016D
:1021B000890000FA01F108980843089008980B99E3
:1021C00021F0030143F60802C4F20102885043F6ED
:1021D0000840C4F2010000680890099908988843F3
:1021E00008900C988079C006002805D5FFE709996A
:1021F000089808430890FFE7089843F60841C4F29E
:102200000101086043F60C40C4F201000068089028
:1022100009990898884308900C98807980060028CE
:1022200005D5FFE70999089808430890FFE7089843
:1022300043F60C41C4F20101086043F60440C4F2C5
:1022400001000068089009990898884308900C9844
:1022500080798007002805D5FFE709990898084389
:102260000890FFE7089843F60441C4F201010860B2
:1022700043F60040C4F201000068089009990898EC
:10228000884308900C988079C00728B1FFE7099926
:10229000089808430890FFE7089843F60041C4F205
:1022A00001010860FFE7FFE7FFE70B9801300B90A3
:1022B0002FE60EB07047000040F20470C2F200003A
:1022C0000068704740F20400C2F20000027840F259
:1022D0000471C2F2000108681044086070470000F1
:1022E00080B543F60041C4F20201086840F4007072
:1022F0000860086840F480600860086840F48070F6
:102300000860032000F0CAF80F2000F005F800F084
:102310007BF8002080BD000080B58CB00B900020C1
:1023200004900390FFE70020009043F64000C4F2C1
:102330000200016841F480710160006800F480705F
:1023400000900098FFE706A802A900F0E1F90998BB
:102350000490049820B9FFE700F00AFA059004E021
:1023600000F006FA40000590FFE705984DF68361FE
:10237000C4F21B31A0FB01014FF0FF3000EB914094
:10238000039040F26010C2F2000042F20001C4F279
:102390000001016040F2E731C16003994160002112
:1023A00001618160816100F079FE8DF807009DF880
:1023B000070028BBFFE740F26010C2F2000000F007
:1023C00027FF8DF807009DF80700C0B9FFE72D2013
:1023D00000F040F80B980F280CD8FFE70B992D2040
:1023E000002200F041F80B9840F20801C2F200010F
:1023F000086003E001208DF80700FFE7FFE7FFE733
:102400009DF807000CB080BD82B0FFE7002001906E
:1024100043F64400C4F20200016841F480410160C7
:10242000006800F4804001900198FFE7FFE700207A
:10243000009043F64000C4F20200016841F0805170
:102440000160006800F0805000900098FFE702B043
:102450007047000080B582B08DF807009DF9070035
:1024600003F052FF02B080BD80B586B08DF8170032
:10247000049103920020029003F05EFF02909DF908
:102480001700019002980499039A02F089FE014610
:10249000019803F059FF06B080BD000080B582B0FE
:1024A0000190019803F072FF02B080BD80B584B046
:1024B00002900191029820B9FFE701208DF80F00EA
:1024C00021E1019843F60041C4F20201096801F0DC
:1024D0000701884212D9FFE7019943F60040C4F290
:1024E00002000170006800F007000199884204D0E2
:1024F000FFE701208DF80F0005E1FFE70298007863
:10250000800700282AD5FFE70298007840070028B6
:1025100009D5FFE743F60801C4F20201086840F458
:10252000E0500860FFE7029800780007002809D50E
:10253000FFE743F60801C4F20201086840F4604076
:102540000860FFE743F60801C4F20201086820F0C2
:10255000F000029A926810430860FFE70298007842
:10256000C00700286ED0FFE702984068012811D10B
:10257000FFE743F60000C4F20200006800F40031F7
:102580000020B0EB514F04D1FFE701208DF80F0080
:10259000B9E02CE002984068022805D0FFE70298D5
:1025A0004068032811D1FFE743F60000C4F202009F
:1025B000006800F000710020B0EB516F04D1FFE71C
:1025C00001208DF80F009EE010E043F60000C4F2F9
:1025D0000200006800F002010020B0EB510F04D1AE
:1025E000FFE701208DF80F008DE0FFE7FFE743F6DE
:1025F0000801C4F20201086820F00300029A526840
:1026000010430860FFF758FE0090FFE743F608000C
:10261000C4F20200006800F00C0002994968B0EBB7
:10262000810F0ED0FFE7FFF747FE0099401A41F2F5
:102630008931884204D3FFE703208DF80F0062E060
:10264000E4E7FFE7019843F60041C4F2020109689C
:1026500001F00701884212D2FFE7019943F60040DA
:10266000C4F202000170006800F00700019988427E
:1026700004D0FFE701208DF80F0044E0FFE7029847
:102680000078400700280CD5FFE743F60801C4F2A4
:102690000201086820F4E050029AD26810430860F2
:1026A000FFE702980078000700280DD5FFE743F602
:1026B0000801C4F20201086820F46040029A12691D
:1026C00040EAC2000860FFE700F076F843F6080130
:1026D000C4F202010968C9B20A0947F24C71C0F696
:1026E0000001895CC84040F20001C2F200010860AC
:1026F00040F20800C2F200000068FFF70DFE002063
:102700008DF80F00FFE79DF80F0004B080BD0000BA
:1027100082B00190009101990F20086043F60800F3
:10272000C4F20200016801F00301019A51600168DE
:1027300001F0F001019A9160016801F4E051019A01
:10274000D160006800F46040C0080199086143F658
:102750000040C4F20200006800F007000099086021
:1027600002B0704740F20000C2F2000000687047FB
:1027700080B5FFF7F7FF43F60801C4F202010968CC
:10278000C1F3822247F25C71C0F60001895CC84047
:1027900080BD000080B5FFF7E5FF43F60801C4F2F5
:1027A0000201096889B24A0B47F25C71C0F6000168
:1027B000895CC84080BD000080B586B000200590CF
:1027C00004900390029043F60800C4F202000068EF
:1027D00000F00C000146019140B1FFE70198042888
:1027E0000AD0FFE7019808280CD04FE042F20040E1
:1027F000C0F2F40002904FE047F64000C0F27D10B6
:10280000029049E043F60400C4F20200016801F0BE
:102810003F01059100684002002813D5FFE743F609
:102820000400C4F202000068C0F3881047F64001BB
:10283000C0F27D11A0FB0101059A0023FDF780FD88
:10284000049012E043F60400C4F202000068C0F3F2
:10285000881042F20041C0F2F401A0FB0101059A88
:102860000023FDF76DFD0490FFE743F60400C4F27A
:102870000200006800F44031022000EBD1300390E8
:1028800004980399B0FBF1F0029005E042F2004099
:10289000C0F2F4000290FFE7029806B080BD00008D
:1028A00080B586B00490049820B9FFE701208DF828
:1028B000170050E304980078C007002800F0A580B6
:1028C000FFE743F60800C4F20200006800F00C00C5
:1028D000042813D0FFE743F60800C4F202000068A2
:1028E00000F00C0008281ED1FFE743F60400C4F2F4
:1028F000020000684002002815D5FFE743F60000FB
:10290000C4F20200006800F400310020B0EB514F27
:1029100008D0FFE70498406820B9FFE701208DF850
:10292000170018E370E0FFE704984068B0F5803FB7
:1029300009D1FFE743F60001C4F20201086840F440
:102940008030086020E004984068B0F5A02F0DD1D9
:10295000FFE743F60001C4F20201086840F480205A
:102960000860086840F4803008600CE043F600011D
:10297000C4F20201086820F480300860086820F47E
:1029800080200860FFE7FFE7FFE704984068E8B1B0
:10299000FFE7FFF791FC0390FFE743F60000C4F266
:1029A0000200006800F400310020B0EB514F0CD160
:1029B000FFE7FFF781FC0399401A652804D3FFE77E
:1029C00003208DF81700C6E2E7E71CE0FFF774FC70
:1029D0000390FFE743F60000C4F20200006800F431
:1029E00000310020B0EB514F0CD0FFE7FFF764FC43
:1029F0000399401A652804D3FFE703208DF81700D8
:102A0000A9E2E7E7FFE7FFE7FFE704980078800720
:102A1000002840F19680FFE743F60800C4F2020068
:102A2000006810F00C0F13D0FFE743F60800C4F263
:102A30000200006800F00C0008282CD1FFE743F6E4
:102A40000400C4F2020000684002002823D4FFE71B
:102A500043F60000C4F20200006800F0020100200A
:102A6000B0EB510F09D0FFE70498C068012804D0EB
:102A7000FFE701208DF817006DE243F60001C4F274
:102A80000201086820F0F800049A126940EAC200C6
:102A90000860FFE754E00498C06870B3FFE70021C6
:102AA000C4F2472101200860FFF706FC0390FFE70E
:102AB00043F60000C4F20200006800F002010020AA
:102AC000B0EB510F0CD1FFE7FFF7F6FB0399401A6B
:102AD000032804D3FFE703208DF817003BE2E7E764
:102AE00043F60001C4F20201086820F0F800049ADD
:102AF000126940EAC200086021E00021C4F24721C7
:102B000000200860FFF7D8FB0390FFE743F60000C2
:102B1000C4F20200006800F002010020B0EB510F87
:102B20000CD0FFE7FFF7C8FB0399401A032804D332
:102B3000FFE703208DF817000DE2E7E7FFE7FFE767
:102B4000FFE704980078000700284BD5FFE70498BA
:102B5000406918B3FFE740F68061C4F247210120C5
:102B60000860FFF7A9FB0390FFE743F67400C4F287
:102B70000200006800F002010020B0EB510F0CD100
:102B8000FFE7FFF799FB0399401A032804D3FFE7F7
:102B900003208DF81700DEE1E7E722E040F68061D0
:102BA000C4F2472100200860FFF786FB0390FFE78F
:102BB00043F67400C4F20200006800F00201002035
:102BC000B0EB510F0CD0FFE7FFF776FB0399401AEB
:102BD000032804D3FFE703208DF81700BBE1E7E7E4
:102BE000FFE7FFE7049800784007002840F1CE8017
:102BF000FFE700208DF8070043F64000C4F2020012
:102C00000068C000002815D4FFE7FFE7002000900F
:102C100043F64000C4F20200016841F080510160B7
:102C2000006800F0805000900098FFE701208DF8C8
:102C30000700FFE747F20000C4F200000068C0058B
:102C4000002822D4FFE747F20001C4F2000108681F
:102C500040F480700860FFF72FFB0390FFE747F216
:102C60000000C4F200000068C00500280CD4FFE793
:102C7000FFF722FB0399401A032804D3FFE7032040
:102C80008DF8170067E1EAE7FFE7FFE7049880683F
:102C9000012809D1FFE743F67001C4F20201086878
:102CA00040F0010008601FE00498806805280DD1FD
:102CB000FFE743F67001C4F20201086840F0040027
:102CC0000860086840F0010008600CE043F67001FD
:102CD000C4F20201086820F001000860086820F0D2
:102CE00004000860FFE7FFE7FFE704988068F8B199
:102CF000FFE7FFF7E1FA0390FFE743F67000C4F245
:102D00000200006800F002010020B0EB510F0ED16C
:102D1000FFE7FFF7D1FA0399401A41F2893188425F
:102D200004D3FFE703208DF8170014E1E5E71EE068
:102D3000FFF7C2FA0390FFE743F67000C4F2020007
:102D4000006800F002010020B0EB510F0ED0FFE749
:102D5000FFF7B2FA0399401A41F28931884204D34D
:102D6000FFE703208DF81700F5E0E5E7FFE79DF8A2
:102D70000700012809D1FFE743F64001C4F2020130
:102D8000086820F080500860FFE7FFE7049880693A
:102D9000002800F0DC80FFE743F60800C4F20200E0
:102DA000006800F00C00082800F08580FFE7049818
:102DB000806902285CD1FFE76021C4F2472100202E
:102DC0000860FFF779FA0390FFE743F60000C4F2CA
:102DD0000200006800F000710020B0EB516F0CD0D1
:102DE000FFE7FFF769FA0399401A032804D3FFE7C6
:102DF00003208DF81700AEE0E7E70499C869D1F821
:102E000020C04B6A8A6A40EA0C0040EA8310D20371
:102E10004FF6FF739A43A2F580321043C96A40EA25
:102E2000016043F60401C4F2020108606021C4F2AB
:102E3000472101200860FFF73FFA0390FFE743F6C0
:102E40000000C4F20200006800F000710020B0EB46
:102E5000516F0CD1FFE7FFF72FFA0399401A0328AF
:102E600004D3FFE703208DF8170074E0E7E721E0C3
:102E70006021C4F2472100200860FFF71DFA03908B
:102E8000FFE743F60000C4F20200006800F00071A2
:102E90000020B0EB516F0CD0FFE7FFF70DFA03995C
:102EA000401A032804D3FFE703208DF8170052E0EF
:102EB000E7E7FFE74AE004988069012804D1FFE7CB
:102EC00001208DF8170046E043F60400C4F202002A
:102ED0000068029004988069012831D0FFE70298C9
:102EE00000F480000499C969884229D1FFE702985B
:102EF00000F03F000499096A884221D1FFE7029857
:102F000047F6C07108400499496AB0EB811F17D198
:102F1000FFE7029800F440300499896AC9034FF62C
:102F2000FF729143A1F58031884209D1FFE70298F1
:102F300000F070600499C96AB0EB016F04D0FFE73C
:102F400001208DF8170006E0FFE7FFE7FFE700200C
:102F50008DF81700FFE79DF8170006B080BD000050
:102F600081B0009001B0704781B0009001B070470F
:102F700081B0009001B0704785B003900291FFE7E7
:102F8000039890F83C00012804D1FFE702208DF857
:102F900013007EE00399012081F83C00FFE7FFE782
:102FA0000399022081F83D00039800684068019071
:102FB0000398006880680090019820F070000190EC
:102FC00002980168019808430190019803990968E3
:102FD0004860039800680021C4F2010188423CD097
:102FE000FFE703980068B0F1804F36D0FFE7039801
:102FF000006840F20041C4F2000188422DD0FFE792
:103000000398006840F60001C4F20001884224D011
:10301000FFE70398006840F60041C4F200018842CF
:103020001BD0FFE70398006840F20041C4F20101A1
:10303000884212D0FFE70398006844F20001C4F20E
:103040000101884209D0FFE70398006841F60001BA
:10305000C4F2000188420ED1FFE7009820F0800002
:1030600000900298416800980843009000980399E6
:1030700009688860FFE70399012081F83D00FFE7B8
:103080000399002081F83C00FFE700208DF8130031
:10309000FFE79DF8130005B07047000080B582B0CF
:1030A0000090009820B9FFE701208DF807004DE05F
:1030B000009890F83D00B0B9FFE70099002081F832
:1030C0003C00009802F0BAFC0098806C38B9FFE729
:1030D000009943F25510C0F600008864FFE700989D
:1030E000816C8847FFE70099022081F83D00009934
:1030F00051F8040B02F0C8F90099012081F846004C
:10310000FFE70099012081F83E00009981F83F0017
:10311000009981F84000009981F84100FFE7FFE73E
:103120000099012081F84200009981F8430000993C
:1031300081F84400009981F84500FFE700990120DB
:1031400081F83D0000208DF80700FFE79DF807009B
:1031500002B080BD80B586B0059005980068B0F1DA
:10316000804F12D1FFE7FFE70020049043F64000B4
:10317000C4F20200016841F001010160006800F042
:10318000010004900498FFE740E00598006840F6CD
:103190000041C4F2000188421BD1FFE7FFE7002095
:1031A000039043F64000C4F20200016841F00801B8
:1031B0000160006800F0080003900398FFE73220E8
:1031C000019000221146FFF74FF90198FFF742F9ED
:1031D0001BE00598006844F20001C4F20101884236
:1031E00012D1FFE7FFE70020029043F64400C4F24B
:1031F0000200016841F480310160006800F4803011
:1032000002900298FFE7FFE7FFE7FFE706B080BD07
:1032100083B00190019890F83D00012804D0FFE7A9
:1032200001208DF80B006AE00199022081F83D0031
:1032300001980168C86840F00100C8600198006802
:103240000021C4F2010188423CD0FFE701980068E8
:10325000B0F1804F36D0FFE70198006840F200419E
:10326000C4F2000188422DD0FFE70198006840F6C3
:103270000001C4F20001884224D0FFE701980068F1
:1032800040F60041C4F2000188421BD0FFE70198DC
:10329000006840F20041C4F20101884212D0FFE709
:1032A0000198006844F20001C4F20101884209D08B
:1032B000FFE70198006841F60001C4F2000188426E
:1032C00012D1FFE701980068806800F007000090C5
:1032D0000098062807D0FFE701980168086840F0C9
:1032E00001000860FFE706E001980168086840F007
:1032F00001000860FFE700208DF80B00FFE79DF854
:103300000B0003B07047000080B586B004900391B5
:1033100000208DF80B00FFE7049890F83C0001288E
:1033200004D1FFE702208DF81700ABE004990120DB
:1033300081F83C00FFE7FFE70499022081F83D0097
:103340000498006880680190019820F0770001904F
:10335000019820F47F4001900198049909688860E1
:10336000039800680090002872D0FFE700981028AA
:103370006ED0FFE7009820286AD0FFE70098302839
:1033800066D0FFE70098402855D0FFE70098502806
:1033900037D0FFE70098602840D0FFE700987028FA
:1033A0000BD0FFE70098B0F5805F05D0FFE70098ED
:1033B000B0F5005F16D052E055E004980068039B1A
:1033C0005A689968DB6802F04DF9049800688068D3
:1033D0000190019840F077000190019804990968E4
:1033E000886040E004980068039B5A689968DB682D
:1033F00002F038F904980168886840F480408860D9
:1034000031E004980068039A5168D26802F076FBB4
:1034100004980068502102F03FF924E00498006805
:10342000039A5168D26802F091FB04980068602109
:1034300002F032F917E004980068039A5168D268E4
:1034400002F05CFB04980068402102F025F90AE0D4
:10345000049800680399096802F01EF903E001204E
:103460008DF80B00FFE70499012081F83D00FFE78C
:103470000499002081F83C00FFE79DF80B008DF8CF
:103480001700FFE79DF8170006B080BD80B586B035
:1034900004900391049820B9FFE701208DF81700EC
:1034A00096E0049890F83D00B0B9FFE70499002039
:1034B00081F83C00049802F0C1FA0498006F38B912
:1034C000FFE7049943F2D950C0F600000867FFE710
:1034D0000498016F8847FFE70499022081F83D00B6
:1034E00004980168886844F2070290438860049950
:1034F00051F8040B01F0C8FF04980068806802903E
:10350000049800688069019004980068006A00903F
:1035100003980168029808430290019840F2033131
:103520008843019003998868896940EA01210198DC
:1035300008430190019840F60C418843019001989E
:103540004FF2F001884301900399C868C96940EAC5
:10355000012101980843019003990869096A000153
:1035600040EA0131019808430190009820F02200C0
:103570000090009820F088000090039948684969FD
:1035800040EA0111009808430090029804990968E4
:10359000886001980499096888610098049909680D
:1035A00008620499012081F84600049981F83E00E0
:1035B000049981F83F00049981F84200049981F848
:1035C0004300049981F83D0000208DF81700FFE7C3
:1035D0009DF8170006B080BD80B58EB00D9000201C
:1035E0000C900B900A90099008900D98006840F29A
:1035F0000041C4F2000188423CD1FFE7FFE7002010
:10360000079043F64000C4F20200016841F0020155
:103610000160006800F0020007900798FFE7FFE7ED
:103620000020069043F63000C4F20200016841F029
:1036300004010160006800F0040006900698FFE7AE
:10364000C020089002200990002102910A910B915C
:103650000C9040F60000C4F2020008A9FEF750FCEE
:10366000029A1D2003901146FEF7FEFE0398FEF716
:10367000F1FE46E00D98006840F60001C4F200013A
:1036800088423DD1FFE7FFE70020059043F6400068
:10369000C4F20200016841F004010160006800F01A
:1036A000040005900598FFE7FFE70020049043F62B
:1036B0003000C4F20200016841F0080101600068B6
:1036C00000F0080004900498FFE74FF44050089081
:1036D00002200990002100910A910B910C9040F674
:1036E0000040C4F2020008A9FEF70AFC009A1E205E
:1036F00001901146FEF7B8FE0198FEF7ABFEFFE71A
:10370000FFE70EB080BD000080B586B00490039145
:10371000049890F83E008DF80B00049890F83F0054
:103720008DF80A00049890F842008DF8090004987A
:1037300090F843008DF808000398B8B9FFE79DF8AA
:103740000B00012805D1FFE79DF80900012804D0EE
:10375000FFE701208DF8170079E00499022081F835
:103760003E00049981F84200FFE742E003980428F4
:1037700017D1FFE79DF80A00012805D1FFE79DF862
:103780000800012804D0FFE701208DF817005EE053
:103790000499022081F83F00049981F84300FFE773
:1037A00026E09DF80B0001280FD1FFE79DF80A00E5
:1037B00001280AD1FFE79DF80900012805D1FFE79C
:1037C0009DF80800012804D0FFE701208DF81700BC
:1037D0003DE00499022081F83E00049981F83F0001
:1037E000049981F84200049981F84300FFE7FFE75C
:1037F000FFE70398019020B1FFE70198042807D064
:103800000DE0049800680021012201F00FFF14E090
:10381000049800680421012201F008FF0DE00498DB
:10382000006800210122009201F000FF009A049834
:103830000068042101F0FAFEFFE7049801680868B7
:1038400040F00100086000208DF81700FFE79DF8A8
:10385000170006B080BD000081B0009001B0704735
:1038600081B0009001B0704781B0009001B0704706
:1038700080B584B0039003980068C06802900398F4
:103880000068006901909DF804008007002827D592
:10389000FFE79DF808008007002820D5FFE7039880
:1038A00001686FF00200086103990120087703980E
:1038B00000688069800728B1FFE70398D0F890106E
:1038C000884708E00398D0F8981088470398D0F804
:1038D0009C108847FFE7039900200877FFE7FFE780
:1038E0009DF804004007002828D5FFE79DF8080050
:1038F0004007002821D5FFE7039801686FF0040016
:10390000086103990220087703980068806910F421
:10391000407F05D0FFE70398D0F89010884708E073
:103920000398D0F8981088470398D0F89C108847DF
:10393000FFE7039900200877FFE7FFE79DF8040001
:103940000007002827D5FFE79DF80800000700289A
:1039500020D5FFE7039801686FF00800086103991C
:103960000420087703980068C069800728B1FFE742
:103970000398D0F89010884708E00398D0F8981082
:1039800088470398D0F89C108847FFE703990020E8
:103990000877FFE7FFE79DF80400C006002828D558
:1039A000FFE79DF80800C006002821D5FFE703982F
:1039B00001686FF0100008610399082008770398E8
:1039C0000068C06910F4407F05D0FFE70398D0F885
:1039D0009010884708E00398D0F89810884703981B
:1039E000D0F89C108847FFE7039900200877FFE78D
:1039F000FFE79DF80400C00780B1FFE79DF80800CD
:103A0000C00750B1FFE7039801686FF0010008613B
:103A10000398D0F880108847FFE7FFE79DF804007F
:103A20000006002811D5FFE79DF8080000060028D1
:103A30000AD5FFE7039801686FF0800008610398DA
:103A4000D0F8B0108847FFE7FFE79DF80400400674
:103A5000002811D5FFE79DF80800400600280AD588
:103A6000FFE7039801686FF0400008610398D0F801
:103A700088108847FFE7FFE79DF8040080060028CC
:103A800011D5FFE79DF80800800600280AD5FFE75A
:103A9000039801686FF0200008610398D0F8A8101F
:103AA0008847FFE7FFE704B080BD000080B588B01D
:103AB00007900020069005900490039002900798CC
:103AC0000068B0F1804F21D1FFE7FFE700200190AF
:103AD00043F63000C4F20200016841F001010160C8
:103AE000006800F0010001900198FFE709200290B2
:103AF00002200390002004900590012006900020F1
:103B0000C4F2020002A9FEF7FBF92BE00798006857
:103B100044F20001C4F20101884222D1FFE7FFE72D
:103B20000020009043F63000C4F20200016841F02A
:103B300010010160006800F0100000900098FFE79D
:103B40006020029002200390002004900590032042
:103B5000069041F20000C4F2020002A9FEF7D0F97B
:103B6000FFE7FFE708B080BD81B0009001B070476B
:103B700080B586B004900391029200208DF8070072
:103B8000FFE7049890F83C00012804D1FFE70220E9
:103B90008DF8170089E00499012081F83C00FFE7C7
:103BA000FFE7029800900C2800F270800099DFE88F
:103BB00001F0076D6D6D206D6D6D3A6D6D6D53008B
:103BC00004980068039901F07DFD049801688869F4
:103BD00040F00800886104980168886920F00400BA
:103BE00088610398026904980168886910438861B4
:103BF00050E004980068039901F0DAFD0498016828
:103C0000886940F40060886104980168886920F43C
:103C1000806088610398026904980168886940EAB5
:103C20000220886136E004980068039901F03AFEAA
:103C300004980168C86940F00800C86104980168E8
:103C4000C86920F00400C8610398026904980168FB
:103C5000C8691043C8611DE004980068039901F029
:103C60009BFE04980168C86940F40060C86104982C
:103C70000168C86920F48060C861039802690498EB
:103C80000168C86940EA0220C86103E001208DF89C
:103C90000700FFE7FFE70499002081F83C00FFE7F9
:103CA0009DF807008DF81700FFE79DF8170006B094
:103CB00080BD000080B582B00090009820B9FFE779
:103CC00001208DF807004DE0009890F83D00B0B954
:103CD000FFE70099002081F83C00009801F0AEFE5B
:103CE0000098006E38B9FFE7009943F66D50C0F6B2
:103CF00000000866FFE70098016E8847FFE700991B
:103D0000022081F83D00009951F8040B01F0BCFB42
:103D10000099012081F84600FFE70099012081F811
:103D20003E00009981F83F00009981F84000009919
:103D300081F84100FFE7FFE70099012081F8420088
:103D4000009981F84300009981F84400009981F8B6
:103D50004500FFE70099012081F83D0000208DF823
:103D60000700FFE79DF8070002B080BD81B000901A
:103D700001B0704781B0009001B0704781B00090F1
:103D800001B0704780B58CB00A900991099828B9A4
:103D9000FFE70A9890F83E0007901CE00998042875
:103DA00005D1FFE70A9890F83F00069010E00998C7
:103DB000082805D1FFE70A9890F84000059004E034
:103DC0000A9890F841000590FFE705980690FFE7F4
:103DD00006980790FFE70798012804D0FFE7012025
:103DE0008DF82F00AFE0099828B9FFE70A99022063
:103DF00081F83E001EE00998042806D1FFE70A99E1
:103E0000022081F83F00049012E00998082806D1AA
:103E1000FFE70A99022081F84000039005E00A9923
:103E2000022081F841000390FFE703980490FFE728
:103E30000498FFE70A98006809990122019201F0AD
:103E4000F5FB01980A9909680022C4F20102914227
:103E500002900CD0FFE70A9800684FF60041CBF6BD
:103E6000FE710844B0FA80F040090290FFE7029822
:103E7000C00738B1FFE70A980168486C40F4004079
:103E80004864FFE70A9800680021C4F201018842F3
:103E90003CD0FFE70A980068B0F1804F36D0FFE7CA
:103EA0000A98006840F20041C4F2000188422DD017
:103EB000FFE70A98006840F60001C4F2000188425A
:103EC00024D0FFE70A98006840F60041C4F20001E0
:103ED00088421BD0FFE70A98006840F20041C4F214
:103EE0000101884212D0FFE70A98006844F20001FD
:103EF000C4F20101884209D0FFE70A98006841F640
:103F00000001C4F20001884212D1FFE70A9800685C
:103F1000806800F0070008900898062807D0FFE79F
:103F20000A980168086840F001000860FFE706E0B1
:103F30000A980168086840F001000860FFE7002067
:103F40008DF82F00FFE79DF82F000CB080BD00001A
:103F500080B582B001900198006842F20001C4F27D
:103F60000001884203D1FFE7FEF7ACF9FFE702B09A
:103F700080BD000081B0009001B0704787B005900F
:103F80008DF81310039200208DF80B00039820B9D0
:103F9000FFE701208DF81B00F9E0059890F83D003F
:103FA000012840F09780FFE79DF81300014601913A
:103FB0001A2800F28A800199DFE801F00E12161A21
:103FC0001E22262A2E32363A3E42464B50555A5F22
:103FD00064696E73787D820003980599886478E03F
:103FE00003980599C86474E003980599086570E022
:103FF0000398059948656CE003980599886568E021
:1040000003980599C86564E003980599086660E01F
:104010000398059948665CE003980599886658E01E
:1040200003980599C86654E003980599086750E01D
:104030000398059948674CE003980599886748E01C
:1040400003980599C86744E003980599C1F8800072
:104050003FE003980599C1F884003AE00398059978
:10406000C1F8880035E003980599C1F88C0030E06C
:1040700003980599C1F890002BE003980599C1F8C1
:10408000940026E003980599C1F8980021E0039870
:104090000599C1F89C001CE003980599C1F8A0009F
:1040A00017E003980599C1F8A40012E00398059958
:1040B000C1F8A8000DE003980599C1F8AC0008E02C
:1040C00003980599C1F8B00003E001208DF80B00BA
:1040D000FFE757E0059890F83D0000284DD1FFE735
:1040E0009DF81300014600910D2841D80099DFE8A2
:1040F00001F0070B0F13171B1F23272B2F33373B01
:1041000003980599886437E003980599C86433E0FB
:104110000398059908652FE00398059948652BE0F9
:1041200003980599886527E003980599C86523E0F9
:104130000398059908661FE00398059948661BE0F7
:1041400003980599886617E003980599C86613E0F7
:104150000398059908670FE00398059948670BE0F5
:1041600003980599886707E003980599C86703E0F5
:1041700001208DF80B00FFE703E001208DF80B0014
:10418000FFE7FFE79DF80B008DF81B00FFE79DF8A8
:104190001B0007B07047000081B0009001B070476D
:1041A00081B0009001B0704782B00190ADF802106C
:1041B00002B0704781B0009001B0704781B00090AC
:1041C00001B0704781B0009001B0704781B000909D
:1041D00001B0704783B002900020019000900298D7
:1041E00090F841000190029890F8420000909DF8EC
:1041F00004009DF80010084303B0704780B592B0EA
:104200001190119800680068109011980068C068BB
:104210000F901198006840690E9000200D900C904E
:10422000109800F00F000D900D9888B9FFE79DF8E9
:104230004000800600280AD5FFE79DF83C00800674
:10424000002804D5FFE7119801F0F4FD02E2FFE732
:104250000D98002800F0C280FFE79DF83800C007E5
:1042600038B9FFE7BDF83C0010F4907F00F0B6804D
:10427000FFE79DF84000C00758B1FFE79DF83D00FB
:10428000C00730B1FFE71199486C40F00100486465
:10429000FFE79DF84000400700280BD5FFE79DF899
:1042A0003800C00730B1FFE71199486C40F00200B8
:1042B0004864FFE79DF84000800700280BD5FFE722
:1042C0009DF83800C00730B1FFE71199486C40F005
:1042D00004004864FFE79DF840000007002811D55E
:1042E000FFE79DF83C008006002805D4FFE79DF815
:1042F0003800C00730B1FFE71199486C40F0080062
:104300004864FFE71198406C002866D0FFE79DF8ED
:104310004000800600280AD5FFE79DF83C00800693
:10432000002804D5FFE7119801F084FDFFE71198FC
:1043300000684069C0F380100C901198406C000731
:10434000002804D4FFE70C9800283ED0FFE711981E
:1043500001F0BCFC119800684069400600282FD588
:10436000FFE7FFE7FFE71198006850E8050F20F02E
:1043700040000B90FFE70B991198026842E8051086
:104380000028F0D1FFE7FFE71198C06B98B1FFE775
:104390001198C16B45F6A130C0F600000865119870
:1043A000C06BFDF7E1FA28B1FFE71198C06B016D12
:1043B0008847FFE703E01198816D8847FFE703E036
:1043C0001198816D8847FFE706E01198816D884755
:1043D000119900204864FFE7FFE73BE11198006B6B
:1043E000012840F01781FFE79DF84000C006002833
:1043F00040F11081FFE79DF83C00C006002840F125
:104400000981FFE7FFE700200A9011980068006823
:104410000A901198006840680A900A98FFE711987E
:10442000006840694006002840F19A80FFE7119833
:10443000C06B00684068ADF82600BDF82600002873
:1044400075D0FFE7BDF826001199898D88426EDA94
:10445000FFE7BDF826001199C8851198C06BC069A7
:10446000B0F5807F58D0FFE7FFE7FFE711980068BD
:1044700050E8030F20F480700890FFE70899119826
:10448000026842E803100028F0D1FFE7FFE7FFE7EA
:10449000FFE71198006850E8050F20F00100079031
:1044A000FFE707991198026842E805100028F0D14B
:1044B000FFE7FFE7FFE7FFE71198006850E8050F07
:1044C00020F040000690FFE706991198026842E844
:1044D00005100028F0D1FFE7FFE71199202081F8AF
:1044E0004200119900200863FFE7FFE71198006878
:1044F00050E8030F20F010000590FFE70599119890
:10450000026842E803100028F0D1FFE7FFE71198A6
:10451000C06BFDF7B3F9FFE71199022048631198CA
:10452000C26E818DC38DC91A89B2904717E0BDF85C
:1045300026001199898D884210D1FFE71198C06B30
:10454000C069B0F5807F08D1FFE711990220486368
:104550001198C26E818D9047FFE7FFE7FFE779E092
:104560001199888DC98D401AADF812001198C08D2F
:1045700000284ED0FFE7BDF81200002849D0FFE721
:10458000FFE7FFE71198006850E8030F20F49070F0
:104590000390FFE703991198026842E8031000288E
:1045A000F0D1FFE7FFE7FFE7FFE71198006850E869
:1045B000050F20F001000290FFE7029911980268B0
:1045C00042E805100028F0D1FFE7FFE7119920200D
:1045D00081F84200119900200863FFE7FFE7119876
:1045E000006850E8030F20F010000190FFE70199E8
:1045F0001198026842E803100028F0D1FFE7FFE7B6
:104600001199022048631198C26EBDF812109047AC
:10461000FFE71FE09DF84000000600280AD5FFE7ED
:104620009DF83C000006002804D5FFE7119801F032
:104630000FFE0FE09DF84000400600280AD5FFE776
:104640009DF83C004006002804D5FFE7119801F0D2
:1046500087FBFFE712B080BD80B582B00090009864
:1046600020B9FFE701208DF807004EE0009880692F
:1046700008B1FFE700E0FFE7009890F84100B0B90B
:10468000FFE70099002081F84000009801F098FBB6
:104690000098006F38B9FFE7009944F21570C0F632
:1046A00000000867FFE70098016F8847FFE700995F
:1046B000242081F8410000980168C86820F4005067
:1046C000C860009801F0F4FC00980168086920F4C3
:1046D0009040086100980168486920F02A0048610C
:1046E00000980168C86840F40050C8600099002034
:1046F0004864009A202182F84110009A82F8421002
:10470000009948638DF80700FFE79DF8070002B0A5
:1047100080BD000080B590B00F9000200E900D90ED
:104720000C900B900A900F98006841F20001C4F2BF
:104730000101884268D1FFE7FFE70020099043F6B6
:104740004400C4F20200016841F0100101600068F9
:1047500000F0100009900998FFE7FFE7002008909B
:1047600043F63000C4F20200016841F0020101602A
:10477000006800F0020008900898FFE7C0200A9047
:1047800002200B90002004900C9003200D90072035
:104790000E9040F20040C4F202000AA9FDF7B0FBFF
:1047A000049940F20010C2F20000059046F2B842AF
:1047B000C4F2020202604FF0006242604022826056
:1047C000C1604FF48062026141618161C161016237
:1047D0004162FDF77BFA18B1FFE7FDF74BF8FFE701
:1047E000FFE70F9840F20011C2F2000181630F98B9
:1047F0008863FFE72520039000221146FDF734FE71
:104800000398FDF727FE48E00F98006844F6000182
:10481000C4F2000188423FD1FFE7FFE70020079084
:1048200043F64000C4F20200016841F480210160B7
:10483000006800F4802007900798FFE7FFE700205A
:10484000069043F63000C4F20200016841F008010E
:104850000160006800F0080006900698FFE74FF43A
:1048600040700A9002200B90002001900C900320D1
:104870000D9007200E9040F60040C4F202000AA9F5
:10488000FDF73EFB019A272002901146FDF7ECFD53
:104890000298FDF7DFFDFFE7FFE710B080BD0000E5
:1048A00080B584B002900191ADF80220029890F892
:1048B0004200202817D1FFE7019820B1FFE7BDF89B
:1048C000020020B9FFE701208DF80F000FE00299E8
:1048D0000020086302980199BDF8022001F086FCCF
:1048E0008DF80F0003E002208DF80F00FFE79DF820
:1048F0000F0004B080BD000087B005908DF8131044
:10490000039200208DF80B00039848B9FFE7059942
:10491000486C40F02000486401208DF81B0078E0CE
:10492000059890F84100202842D1FFE79DF8130038
:10493000014601910C2831D80199DFE801F0070BFD
:104940000F13171B1F232F2F2F272B0003980599B9
:1049500088642CE003980599C86428E003980599B9
:10496000086524E003980599486520E003980599B7
:1049700088651CE003980599C86518E003980599B7
:10498000086614E003980599486610E003980599B5
:1049900008670CE003980599486708E00599486C9A
:1049A00040F02000486401208DF80B00FFE72BE069
:1049B000059890F84100E8B9FFE79DF8130001461B
:1049C00000910B2804D0FFE700980C2804D007E0E2
:1049D0000398059908670CE003980599486708E073
:1049E0000599486C40F02000486401208DF80B00C8
:1049F000FFE708E00599486C40F02000486401207A
:104A00008DF80B00FFE7FFE79DF80B008DF81B000A
:104A1000FFE79DF81B0007B07047000081B00090D1
:104A200001B0704781B0009001B0704780B586B08A
:104A300004900391ADF80A20049890F841002028D2
:104A40006AD1FFE7039820B1FFE7BDF80A0020B95B
:104A5000FFE701208DF8170062E0039804990862CF
:104A6000BDF80A0004998884BDF80A000499C88436
:104A7000049900204864049A212182F84110049985
:104A80008A6B45F63941C0F60001D16304998A6BFF
:104A900045F6B541C0F60001116404998A6B45F6EC
:104AA000BD31C0F60001D1640499896B086503A883
:104AB000019004980268806B019909680432BDF87E
:104AC0000A30FDF7BBF958B1FFE70499102048649C
:104AD0000499202081F8410001208DF817001FE083
:104AE000049801686FF040000860FFE7FFE7049852
:104AF000006850E8050F40F080000090FFE7009943
:104B00000498026842E805100028F0D1FFE7FFE7AB
:104B100000208DF8170003E002208DF81700FFE752
:104B20009DF8170006B080BD81B0009001B07047BD
:104B300081B0009001B07047FFE7FEE781B00090C0
:104B400040F27C30C2F2000000680068C006002815
:104B50000AD5FFE740F2C060C2F200000168486871
:104B6000A0F58030486009E040F2C060C2F2000069
:104B70000168486800F580304860FFE701B0704781
:104B800080B582B0FFE70020019043F63000C4F208
:104B90000200016841F480010160006800F48000B7
:104BA00001900198FFE74620009000221146FDF792
:104BB0005BFC0098FDF74EFC02B080BD86B0FFE7BD
:104BC0000020059043F63000C4F20200016841F075
:104BD00010010160006800F0100005900598FFE7E3
:104BE000FFE70020049043F63000C4F202000168A1
:104BF00041F004010160006800F004000490049892
:104C0000FFE7FFE70020039043F63000C4F2020004
:104C1000016841F080010160006800F080000390AD
:104C20000398FFE7FFE70020029043F63000C4F24C
:104C30000200016841F001010160006800F001001C
:104C400002900298FFE7FFE70020019043F6300052
:104C5000C4F20200016841F008010160006800F040
:104C6000080001900198FFE7FFE70020009043F65D
:104C70003000C4F20200016841F0020101600068E6
:104C800000F0020000900098FFE706B070470000B7
:104C900080B58EB0002100910D910C910B910A917D
:104CA0000991089107910691059104910391029150
:104CB000019140F21420C2F200004FF080420260E5
:104CC00040F24F12426081606322C2600161802124
:104CD0008161FEF7E3F918B1FFE7FCF7CBFDFFE7D1
:104CE0004FF480500A9040F21420C2F200000AA94A
:104CF000FEF70AFB18B1FFE7FCF7BCFDFFE740F247
:104D00001420C2F20000FEF7D5FF18B1FFE7FCF750
:104D1000B1FDFFE700200890099040F21420C2F294
:104D2000000008A9FEF728F918B1FFE7FCF7A2FD7B
:104D3000FFE760200190002202920392059240F268
:104D40001420C2F2000001A9FEF712FF18B1FFE71C
:104D5000FCF790FDFFE740F21420C2F2000001A929
:104D60000C22FEF705FF18B1FFE7FCF783FDFFE714
:104D700040F21420C2F20000FEF798FE0EB080BD93
:104D800080B58EB005A801902421FBF786FB019920
:104D9000002202920492039240F2C820C2F2000064
:104DA00040F20043C4F200030360426082604FF6A9
:104DB000FF73C3600261826103230593069201239E
:104DC0000793089209920A920B930C920D92FEF7A8
:104DD0005DFB18B1FFE7FCF74DFDFFE700200390F6
:104DE000049040F2C820C2F2000003A9FEF7C4F804
:104DF00018B1FFE7FCF73EFDFFE70EB080BD0000F5
:104E000080B58EB005A801902421FBF746FB0199DF
:104E1000002202920492039240F27C30C2F200001F
:104E200040F60003C4F200030360426082604FF664
:104E3000FF73C3600261826103230593069201231D
:104E40000793089209920A920B930C920F220D92EB
:104E5000FEF71CFB18B1FFE7FCF70CFDFFE7002095
:104E60000390049040F27C30C2F2000003A9FEF7E8
:104E700083F818B1FFE7FCF7FDFCFFE70EB080BD3B
:104E800080B588B0002101910791069105910491A8
:104E90000391029140F23040C2F2000040F600421D
:104EA000C4F20002026040F247324260816040F288
:104EB000E732C26001618161FEF7F0F818B1FFE7E7
:104EC000FCF7D8FCFFE74FF48050049040F23040EC
:104ED000C2F2000004A9FEF717FA18B1FFE7FCF7C9
:104EE000C9FCFFE700200290039040F23040C2F27C
:104EF000000002A9FEF740F818B1FFE7FCF7BAFC82
:104F0000FFE708B080BD000080B58CB000210091A3
:104F10000B910A91099108910791069105910491CD
:104F200003910291019140F2E440C2F2000044F288
:104F30000002C4F20102026040F24F12426081603E
:104F40006322C260016180218161FEF7A7F818B178
:104F5000FFE7FCF78FFCFFE74FF48050089040F22A
:104F6000E440C2F2000008A9FEF7CEF918B1FFE74D
:104F7000FCF780FCFFE740F2E440C2F20000FEF7DD
:104F800099FE18B1FFE7FCF775FCFFE76020019080
:104F9000002202920392059240F2E440C2F2000025
:104FA00001A9FEF7E5FD18B1FFE7FCF763FCFFE799
:104FB00040F2E440C2F2000001A90422FEF7D8FD4D
:104FC00018B1FFE7FCF756FCFFE740F2E440C2F2FD
:104FD0000000FEF76BFD0CB080BD000080B582B014
:104FE00040F29850C2F20000019041F20001C4F278
:104FF000010101604FF4165141604FF4805181600E
:105000000021C1604FF4806202610C224261816123
:10501000C161FFF721FB18B1FFE7FCF72BFCFFE7AD
:1050200002B080BD80B582B040F21060C2F20000D4
:10503000019044F60001C4F20001016048F2A06151
:10504000C0F2010141604FF4805181604FF4005182
:10505000C1604FF4806101610C21416100218161D7
:10506000C161FFF7F9FA18B1FFE7FCF703FCFFE7AE
:1050700002B080BDFFE7FEE780B584B003A90191CF
:105080000146019880ED000A8DF80B1090ED000AA2
:10509000B5EE400AF1EE10FA0FDBFFE7019890ED54
:1050A000000A01F093FB9DF80B1000F03BF89DF80F
:1050B0000B10002000F018F812E09DF80B100020F3
:1050C00000F030F8019890ED001A9FED060A30EEDE
:1050D000410A01F07BFB9DF80B1000F005F8FFE79B
:1050E00004B080BD0000008081B0ADF802008DF8F2
:1050F00001109DF8010048B9FFE7BDF8020040F239
:105100001421C2F200010968086408E0BDF8020039
:1051100040F2E441C2F2000109688863FFE701B090
:105120007047000081B0ADF802008DF801109DF8C5
:10513000010048B9FFE7BDF8020040F21421C2F2B5
:1051400000010968486308E0BDF8020040F2E4414C
:10515000C2F2000109684863FFE701B07047000030
:1051600081B08DF801009DF8010048B9FFE740F2D9
:105170007C30C2F200000068406AADF8020008E02E
:1051800040F2C820C2F200000068406AADF8020098
:10519000FFE7BDF8020001B070470000FFE7FEE73F
:1051A00088B0079006910592079800F007000490D8
:1051B0000498C0F10700052803D3FFE704200190FD
:1051C00004E00498C0F107000190FFE70198039004
:1051D00004980430062803D8FFE70020009003E07D
:1051E000049803380090FFE700980290069803990E
:1051F000012202FA01F101390840029B9840059909
:105200009A40013A1140084308B0704785B00490B5
:105210008DED030ACDED020A049890ED020A9DED92
:10522000031A30EE410A9FED3A1A20EE010A8DED85
:10523000010A049890ED010A9FED361AB4EE410A76
:10524000F1EE10FA0DDDFFE7049890ED020A9DEDF6
:10525000031A30EE410AB5EE400AF1EE10FA2EDBE9
:10526000FFE7049890ED010A9FED2B1AB4EE410A76
:10527000F1EE10FA0DDAFFE7049890ED020A9DEDC9
:10528000031A30EE410AB5EE400AF1EE10FA16DCD0
:10529000FFE7049890ED010A9FED1F1AB4EE410A52
:1052A000F1EE10FA1DDBFFE7049890ED010A9FED87
:1052B000191AB4EE410AF1EE10FA12DCFFE7049875
:1052C00090ED011A90ED020A9DED032A30EE420A9C
:1052D0009FED122A20EE020A30EE010A80ED010A4B
:1052E000FFE79DED020A9FED0E1A20EE010A8DEDFB
:1052F000000A9DED010A049890ED011A30EE010AB2
:105300009DED001A30EE010A80ED000A05B07047ED
:105310009A99193FCDCC4C3ECDCC4CBE0AD7A33D7B
:105320006666663F7047000081B0009040F2C8207A
:10533000C2F2000000680068C00600280AD5FFE736
:1053400040F2E060C2F2000001684868A0F58030D9
:10535000486009E040F2E060C2F20000016848687D
:1053600000F580304860FFE701B0704770470000EB
:105370007047000080B594B008A83021FBF78DF885
:10538000002007900690059004900390FFE700200E
:10539000029043F64000C4F20200016841F08051DF
:1053A0000160006800F0805002900298FFE7FFE77C
:1053B0000020019047F20000C4F20000016841F4AF
:1053C00080410160006800F4804001900198FFE78F
:1053D000012008904FF48030099002200E904FF485
:1053E00080010F91192110914FF4A8711191129021
:1053F0000420139008A8FDF753FA18B1FFE7FCF753
:1054000039FAFFE70F200390022004900020059056
:105410004FF4A05006904FF48050079003A8052148
:10542000FDF744F818B1FFE7FCF724FAFFE714B0E2
:1054300080BD00004EF68851CEF20001086840F4AD
:10544000700008607047000080B540F2C820C2F2CA
:105450000000FEF70DFA80BD80B540F27C30C2F24C
:105460000000FEF705FA80BD80B540F23040C2F280
:105470000000FEF7FDF980BD80B540F26010C2F279
:105480000000FEF7F5F980BD83B00290019102980B
:105490000068009002980021C4F20101884225D0E2
:1054A000FFE70298B0F1804F20D0FFE7029840F26A
:1054B0000041C4F20001884218D0FFE7029840F68C
:1054C0000001C4F20001884210D0FFE7029840F6C4
:1054D0000041C4F20001884208D0FFE7029840F280
:1054E0000041C4F2010188420AD1FFE7009820F090
:1054F0007000009001984168009808430090FFE711
:1055000002980021C4F20101884255D0FFE70298B9
:10551000B0F1804F50D0FFE7029840F20041C4F252
:105520000001884248D0FFE7029840F60001C4F22B
:105530000001884240D0FFE7029840F60041C4F2E3
:105540000001884238D0FFE7029840F20041C4F2DF
:105550000101884230D0FFE7029844F20001C4F212
:105560000101884228D0FFE7029844F20041C4F2CA
:105570000101884220D0FFE7029844F60001C4F2FE
:105580000101884218D0FFE7029841F60001C4F2F9
:105590000001884210D0FFE7029841F60041C4F2B2
:1055A0000001884208D0FFE7029842F20001C4F2ED
:1055B000000188420AD1FFE7009820F44070009073
:1055C0000198C168009808430090FFE7009820F018
:1055D0008000019949690843009001988068029908
:1055E000C862019800680299886202980021C4F29A
:1055F0000101884208D0FFE7029840F20041C4F25E
:105600000101884205D1FFE701980069029908630A
:10561000FFE70299086840F0040008600299012041
:10562000486100980299086003B0704784B0039005
:1056300002910192029800F01F0101208840009021
:10564000009A0399086A904308620198029901F050
:105650001F0100FA01F20399086A1043086204B0BE
:105660007047000085B00490039102920193049862
:1056700080680090009820F47F4000900398029981
:10568000019A41EA022101430098084300900098E2
:105690000499886005B0704783B002900191029828
:1056A00080680090009820F07000009001980099A8
:1056B000084340F00700009000980299886003B00A
:1056C0007047000085B0049003910498006A01902F
:1056D0000499086A20F0010008620498406800906C
:1056E000049880690290029820F07000029002985D
:1056F00020F003000290039801680298084302908A
:10570000019820F0020001900398816801980843F5
:10571000019004980021C4F20101884208D0FFE7FB
:10572000049840F20041C4F2010188420ED1FFE723
:10573000019820F0080001900398C168019808437F
:105740000190019820F004000190FFE704980021E7
:10575000C4F20101884208D0FFE7049840F20041FA
:10576000C4F20101884213D1FFE7009820F4807051
:105770000090009820F40070009003984169009810
:105780000843009003988169009808430090FFE760
:1057900000980499486002980499886103984068C9
:1057A0000499486301980499086205B070470000A5
:1057B00085B0049003910498006A01900499086AE6
:1057C00020F01000086204984068009004988069F6
:1057D0000290029820F4E0400290029820F4407079
:1057E000029003980168029840EA01200290019813
:1057F00020F02000019003988168019840EA011090
:10580000019004980021C4F20101884208D0FFE70A
:10581000049840F20041C4F2010188420FD1FFE731
:10582000019820F0800001900398C168019840EA37
:1058300001100190019820F040000190FFE70498CA
:105840000021C4F20101884208D0FFE7049840F229
:105850000041C4F20101884215D1FFE7009820F40D
:1058600080600090009820F40060009003984169E7
:10587000009840EA8100009003988169009840EA0E
:1058800081000090FFE7009804994860029804990D
:1058900088610398406804998863019804990862B4
:1058A00005B0704785B0049003910498006A019098
:1058B0000499086A20F48070086204984068009097
:1058C0000498C0690290029820F07000029002983B
:1058D00020F00300029003980168029808430290A8
:1058E000019820F40070019003988168019840EAC3
:1058F0000120019004980021C4F20101884208D0DF
:10590000FFE7049840F20041C4F2010188420FD140
:10591000FFE7019820F4006001900398C1680198A6
:1059200040EA01200190019820F480600190FFE797
:1059300004980021C4F20101884208D0FFE70498CE
:1059400040F20041C4F20101884215D1FFE70098FE
:1059500020F480500090009820F4005000900398AC
:105960004169009840EA011000900398816900980D
:1059700040EA01100090FFE70098049948600298FF
:105980000499C861039840680499C8630198049910
:10599000086205B07047000085B004900391049838
:1059A000006A01900499086A20F480500862049803
:1059B000406800900498C0690290029820F4E0408A
:1059C0000290029820F440700290039801680298B7
:1059D00040EA01200290019820F4005001900398C1
:1059E0008168019840EA0130019004980021C4F2D6
:1059F0000101884208D0FFE7049840F20041C4F258
:105A0000010188420BD1FFE7009820F4804000900C
:105A100003984169009840EA81100090FFE70098E0
:105A20000499486002980499C861039840680499F1
:105A3000086401980499086205B0704781B000902D
:105A4000009943F65170C0F60000C1F8800000993B
:105A500043F67570C0F60000C1F88400009944F266
:105A60009910C0F60000C1F88800009944F2A11016
:105A7000C0F60000C1F88C00009943F66100C0F642
:105A80000000C1F89000009943F66900C0F60000DC
:105A9000C1F89400009943F66930C0F60000C1F8DF
:105AA0009800009943F67550C0F60000C1F89C00BC
:105AB000009943F67D50C0F60000C1F8A00000999F
:105AC00043F65900C0F60000C1F8A400009942F660
:105AD0006970C0F60000C1F8A800009942F6717024
