:020000040800F2
:10000000D00B002055020008C9360008193100083D
:10001000A13500084D040008AD46000800000000AE
:100020000000000000000000000000006D38000823
:100030005905000800000000593800087138000810
:100040006F0200086F0200086F0200086F020008CC
:100050006F0200086F0200086F0200086F020008BC
:100060006F0200086F0200086F0200086F020008AC
:100070006F0200086F0200086F0200086F0200089C
:100080006F0200086F0200086F0200086F0200088C
:100090006F0200086F0200086F0200086F0200087C
:1000A0006F0200086F0200086F0200086F0200086C
:1000B0006F02000849390008593900086F0200082A
:1000C0006F0200086F0200086F0200086F0200084C
:1000D0006F0200086F0200086F0200089D460008CA
:1000E0006F0200086F0200086F0200086F0200082C
:1000F0006F020008793900086F0200086F020008DB
:100100006F0200086F020008693900086F020008DA
:100110006F0200086F0200086F0200086F020008FB
:100120006F0200086F0200086F0200086F020008EB
:100130006F0200086F0200086F0200086F020008DB
:100140006F0200086F0200086F0200086F020008CB
:100150006F0200086F0200086F0200086F020008BB
:100160006F0200086F0200086F0200086F020008AB
:100170006F0200086F0200086F0200080000000014
:100180006F0200086F02000800F002F800F052F859
:1001900014A696E8000CB244B344DA4501D100F04D
:1001A00049F8BAE80F000FA696E83000A5EB040561
:1001B00004EB0607AAEB0704A7F101074FEA1515A0
:1001C0004FEA3414A4F10104AC4201D300F032F838
:1001D00013F0010F18BFFB1A43F0010300F001F800
:1001E000DBE71847E84B0000084C0000103A24BF3A
:1001F00078C878C1FAD8520724BF30C830C144BF8C
:1002000004680C6070470000704700000023002461
:1002100000250026103A28BF78C1FBD8520728BF16
:1002200030C148BF0B6070471FB504F0B5FD1FBD5E
:1002300010B510BD00F0D0F81146FFF7F5FF04F03F
:1002400031FC00F0EEF803B4FFF7F2FF03BC00F05E
:10025000F5F800000948804709480047FEE7FEE737
:10026000FEE7FEE7FEE7FEE7FEE7FEE7FEE7FEE766
:1002700004480549054A064B704700003539000817
:1002800089010008D0050020D00B0020D0070020F5
:10029000D007002053EA020C00F069802DE9F04BF2
:1002A0004FF00006002B1FBFB3FA83F503FA05F4E5
:1002B00024FA05F65E4012BF1643B2FA82F502FA3E
:1002C00005F4C5F120051EBF22FA05FC44EA0C0422
:1002D000203556EA044C4FEA144418BF641C4FF012
:1002E00000084FF00009904271EB030C39D300294C
:1002F00019BFB1FA81F701FA07F6B0FA80F700FAF0
:1003000007F6C7F120071EBF20FA07FC46EA0C06D5
:100310002037B6FBF4FCA7EB0507103F07F01F0BD7
:10032000CBF120062CFA06F60CFA0BFB44BFB346C1
:100330000026202FA4BF5E464FF0000B5BEA060CA0
:1003400008BF4FF0010B19EB0B0948EB0608ABFB9C
:10035000027C06FB02CC0BFB03CCC01B71EB0C0137
:10036000C1E70B46024641464846BDE8F08B13B54F
:10037000084318BF4FF0FF300146AFF30080BDE8DF
:100380001C4070474FF0000200B513469446964655
:10039000203922BFA0E80C50A0E80C50B1F1200198
:1003A000BFF4F7AF090728BFA0E80C5048BF0CC046
:1003B0005DF804EB890028BF40F8042B08BF7047A4
:1003C00048BF20F8022B11F0804F18BF00F8012B16
:1003D0007047704770477047754600F02BF8AE467F
:1003E00005006946534620F00700854618B020B541
:1003F000FFF73EFFBDE820404FF000064FF000073A
:100400004FF000084FF0000BAC46ACE8C009ACE878
:10041000C009ACE8C009ACE8C00921F007018D466D
:10042000704710B50446AFF300802046BDE8104089
:10043000FFF709BF0048704710000020014918204D
:10044000ABBEFEE72600020070470000FFE7FEE7B4
:1004500084B00820ADF80C000320ADF80A0000209D
:100460008DF80F00019001200090FFE701981028FF
:1004700070DCFFE79DF80F00C007D0B9FFE7009AD6
:1004800040F29000C2F200008118805CBDF80C20A0
:10049000C2F10803D840497891400843019A40F2DC
:1004A0007001C2F2000121F81200009801300090A2
:1004B0001FE0009940F29000C2F200004318405C37
:1004C000BDF80C20C2F10801C84059789B7802F1B0
:1004D000080C03FA0CF3184391400843019A40F2C8
:1004E0007001C2F2000121F8120000980230009061
:1004F000FFE7019A40F27001C2F2000131F81200E8
:100500006FF3DF2021F81200BDF80A00C0F10800E7
:10051000ADF80C00BDF80C00C0F10B0009280ADB97
:10052000FFE7BDF80C00C0F10300ADF80A000120A0
:100530008DF80F0009E0BDF80C00C0F10B00ADF81C
:100540000A0000208DF80F00FFE7FFE70198013057
:1005500001908BE704B070477047000072B6FFE768
:10056000FEE7000080B584B002900298806D019093
:1005700000F06CFA0090029890F8350002280DD037
:10058000FFE7029980204865FFE70299002081F883
:100590003400FFE701208DF80F0055E00298016854
:1005A000086820F01600086002980168486920F089
:1005B000800048610298006C20B9FFE70298806CC7
:1005C00038B1FFE702980168086820F00800086069
:1005D000FFE702980168086820F001000860FFE763
:1005E000029800680068C007C8B1FFE700F02EFA63
:1005F0000099401A062811D3FFE702992020486588
:100600000299032081F83500FFE70299002081F864
:100610003400FFE703208DF80F0015E0E0E70298B3
:10062000C16D3F208840019988600299012081F8BE
:100630003500FFE70299002081F83400FFE7FFE76B
:1006400000208DF80F00FFE79DF80F0004B080BD7B
:1006500082B00090009890F83500022807D0FFE79C
:1006600000998020486501208DF807000EE0009970
:10067000052081F8350000980168086820F0010025
:100680000860FFE700208DF80700FFE79DF80700EE
:1006900002B070478EB00D900C9100200A90099026
:1006A00008900B90FFE70B980F2800F2CC81FFE732
:1006B0000B99012088400A900C9800680A9908401C
:1006C000099009980A99884240F0B881FFE70C9890
:1006D000406800F00300012807D0FFE70C9840684D
:1006E00000F0030002282FD1FFE70D9880680890E2
:1006F0000B984100032000FA01F108988843089004
:100700000C98C0680B99490000FA01F10898084359
:10071000089008980D9988600D98406808900B998A
:10072000012000FA01F10898884308900C9840686D
:10073000C0F300100B9900FA01F1089808430890E3
:1007400008980D994860FFE70C98406800F0030096
:10075000032818D0FFE70D98C06808900B98410057
:10076000032000FA01F10898884308900C988068EB
:100770000B99490000FA01F108980843089008987D
:100780000D99C860FFE70C98406800F0030002284C
:1007900026D1FFE70D980B996FF0030202EA510191
:1007A0000844006A08900B9800F0070081000F20B1
:1007B00000FA01F10898884308900C9800690B9999
:1007C00001F00701890000FA01F108980843089038
:1007D00008980D990B9B02EA530211440862FFE747
:1007E0000D98006808900B984100032000FA01F171
:1007F0000898884308900C98406800F003000B9913
:10080000490000FA01F108980843089008980D99EA
:1008100008600C9880798007002800F00E81FFE7BF
:10082000FFE70020079043F64400C4F2020001688D
:1008300041F480410160006800F48040079007980F
:10084000FFE70B9820F0030043F60801C4F2010112
:10085000405808900B9800F0030081000F2000FA28
:1008600001F10898884308900D980021C4F2020114
:10087000884203D1FFE7002006905EE00D9840F229
:100880000041C4F20201884203D1FFE70120059034
:1008900050E00D9840F60001C4F20201884203D1F5
:1008A000FFE70220049042E00D9840F60041C4F2B8
:1008B0000201884203D1FFE70320039034E00D9842
:1008C00041F20001C4F20201884203D1FFE7042093
:1008D000029026E00D9841F20041C4F202018842E4
:1008E00003D1FFE70520019018E00D9841F60001C3
:1008F000C4F20201884203D1FFE7062000900AE01B
:100900000D9941F60042C4F202020820914208BF4C
:1009100007200090FFE700980190FFE70198029000
:10092000FFE702980390FFE703980490FFE704981D
:100930000590FFE705980690FFE70698C0B20B996F
:1009400001F00301890000FA01F1089808430890BA
:1009500008980B9921F0030143F60802C4F2010242
:10096000885043F60840C4F20100006808900999D5
:100970000898884308900C988079C006002805D50F
:10098000FFE70999089808430890FFE7089843F69D
:100990000841C4F20101086043F60C40C4F20100B2
:1009A0000068089009990898884308900C98807905
:1009B0008006002805D5FFE70999089808430890A4
:1009C000FFE7089843F60C41C4F20101086043F6C2
:1009D0000440C4F20100006808900999089888430F
:1009E00008900C9880798007002805D5FFE70999C1
:1009F000089808430890FFE7089843F60441C4F2BA
:100A00000101086043F60040C4F20100006808904C
:100A100009990898884308900C988079C00728B1F4
:100A2000FFE70999089808430890FFE7089843F6FC
:100A30000041C4F201010860FFE7FFE7FFE70B9800
:100A400001300B902FE60EB07047000040F2CC5002
:100A5000C2F200000068704740F20400C2F20000D9
:100A6000027840F2CC51C2F20001086810440860DC
:100A70007047000080B543F60041C4F202010868E7
:100A800040F400700860086840F4806008600868FE
:100A900040F480700860032000F0CAF80F2000F0D6
:100AA00005F800F07BF8002080BD000080B58CB018
:100AB0000B90002004900390FFE70020009043F685
:100AC0004000C4F20200016841F4807101600068D6
:100AD00000F4807000900098FFE706A802A900F0DB
:100AE000E1F909980490049820B9FFE700F00AFAA8
:100AF000059004E000F006FA40000590FFE7059835
:100B00004DF68361C4F21B31A0FB01014FF0FF30B1
:100B100000EB9140039040F2E000C2F2000042F28C
:100B20000001C4F20001016040F2E731C1600399A5
:100B30004160002101618160816100F079FE8DF8E2
:100B400007009DF8070028BBFFE740F2E000C2F273
:100B5000000000F027FF8DF807009DF80700C0B9DE
:100B6000FFE72D2000F040F80B980F280CD8FFE786
:100B70000B992D20002200F041F80B9840F208015B
:100B8000C2F20001086003E001208DF80700FFE7D2
:100B9000FFE7FFE79DF807000CB080BD82B0FFE7DC
:100BA0000020019043F64400C4F20200016841F4C1
:100BB00080410160006800F4804001900198FFE7E7
:100BC000FFE70020009043F64000C4F202000168F5
:100BD00041F080510160006800F080500090009862
:100BE000FFE702B07047000080B582B08DF80700C3
:100BF0009DF9070003F05CFD02B080BD80B586B0B2
:100C00008DF81700049103920020029003F068FD14
:100C100002909DF91700019002980499039A02F03E
:100C200055FD0146019803F063FD06B080BD00004C
:100C300080B582B00190019803F07CFD02B080BDC8
:100C400080B584B002900191029820B9FFE701209D
:100C50008DF80F0021E1019843F60041C4F2020132
:100C6000096801F00701884212D9FFE7019943F6AC
:100C70000040C4F202000170006800F00700019912
:100C8000884204D0FFE701208DF80F0005E1FFE75F
:100C900002980078800700282AD5FFE7029800789C
:100CA0004007002809D5FFE743F60801C4F2020116
:100CB000086840F4E0500860FFE7029800780007F9
:100CC000002809D5FFE743F60801C4F202010868CD
:100CD00040F460400860FFE743F60801C4F20201F7
:100CE000086820F0F000029A926810430860FFE75D
:100CF00002980078C00700286ED0FFE7029840688D
:100D0000012811D1FFE743F60000C4F20200006899
:100D100000F400310020B0EB514F04D1FFE7012077
:100D20008DF80F00B9E02CE002984068022805D049
:100D3000FFE702984068032811D1FFE743F600005F
:100D4000C4F20200006800F000710020B0EB516FA7
:100D500004D1FFE701208DF80F009EE010E043F67C
:100D60000000C4F20200006800F002010020B0EBB5
:100D7000510F04D1FFE701208DF80F008DE0FFE750
:100D8000FFE743F60801C4F20201086820F00300FF
:100D9000029A526810430860FFF758FE0090FFE780
:100DA00043F60800C4F20200006800F00C0002994B
:100DB0004968B0EB810F0ED0FFE7FFF747FE0099BF
:100DC000401A41F28931884204D3FFE703208DF8AD
:100DD0000F0062E0E4E7FFE7019843F60041C4F248
:100DE0000201096801F00701884212D2FFE7019968
:100DF00043F60040C4F202000170006800F00700F2
:100E00000199884204D0FFE701208DF80F0044E0EB
:100E1000FFE702980078400700280CD5FFE743F66B
:100E20000801C4F20201086820F4E050029AD26876
:100E300010430860FFE702980078000700280DD5EE
:100E4000FFE743F60801C4F20201086820F460409D
:100E5000029A126940EAC2000860FFE700F076F8E3
:100E600043F60801C4F202010968C9B20A0944F64E
:100E7000B251C0F60001895CC84040F20001C2F2E4
:100E80000001086040F20800C2F200000068FFF7AD
:100E90000DFE00208DF80F00FFE79DF80F0004B055
:100EA00080BD000082B00190009101990F20086080
:100EB00043F60800C4F20200016801F00301019A40
:100EC0005160016801F0F001019A9160016801F43C
:100ED000E051019AD160006800F46040C0080199B7
:100EE000086143F60040C4F20200006800F0070009
:100EF0000099086002B0704740F20000C2F20000A2
:100F00000068704780B5FFF7F7FF43F60801C4F2A9
:100F100002010968C1F3822244F6C251C0F6000101
:100F2000895CC84080BD000080B5FFF7E5FF43F64F
:100F30000801C4F20201096889B24A0B44F6C251A1
:100F4000C0F60001895CC84080BD000080B586B055
:100F50000020059004900390029043F60800C4F22C
:100F60000200006800F00C000146019140B1FFE76B
:100F7000019804280AD0FFE7019808280CD04FE018
:100F800042F20040C0F2F40002904FE047F6400009
:100F9000C0F27D10029049E043F60400C4F2020062
:100FA000016801F03F01059100684002002813D557
:100FB000FFE743F60400C4F202000068C0F38810A3
:100FC00047F64001C0F27D11A0FB0101059A002304
:100FD000FFF760F9049012E043F60400C4F2020047
:100FE0000068C0F3881042F20041C0F2F401A0FB97
:100FF0000101059A0023FFF74DF90490FFE743F63E
:101000000400C4F20200006800F44031022000EB4A
:10101000D130039004980399B0FBF1F0029005E001
:1010200042F20040C0F2F4000290FFE7029806B0DE
:1010300080BD000080B586B00490049820B9FFE719
:1010400001208DF8170050E304980078C0070028AD
:1010500000F0A580FFE743F60800C4F20200006834
:1010600000F00C00042813D0FFE743F60800C4F298
:101070000200006800F00C0008281ED1FFE743F6CC
:101080000400C4F2020000684002002815D5FFE702
:1010900043F60000C4F20200006800F400310020B2
:1010A000B0EB514F08D0FFE70498406820B9FFE744
:1010B00001208DF8170018E370E0FFE704984068FE
:1010C000B0F5803F09D1FFE743F60001C4F2020109
:1010D000086840F48030086020E004984068B0F56B
:1010E000A02F0DD1FFE743F60001C4F2020108680A
:1010F00040F480200860086840F4803008600CE00C
:1011000043F60001C4F20201086820F48030086050
:10111000086820F480200860FFE7FFE7FFE70498F5
:101120004068E8B1FFE7FFF791FC0390FFE743F663
:101130000000C4F20200006800F400310020B0EBAF
:10114000514F0CD1FFE7FFF781FC0399401A652846
:1011500004D3FFE703208DF81700C6E2E7E71CE0A1
:10116000FFF774FC0390FFE743F60000C4F20200AF
:10117000006800F400310020B0EB514F0CD0FFE7C5
:10118000FFF764FC0399401A652804D3FFE70320A6
:101190008DF81700A9E2E7E7FFE7FFE7FFE704980C
:1011A00000788007002840F19680FFE743F60800AA
:1011B000C4F20200006810F00C0F13D0FFE743F6F2
:1011C0000800C4F20200006800F00C0008282CD1CE
:1011D000FFE743F60400C4F2020000684002002862
:1011E00023D4FFE743F60000C4F20200006800F0D9
:1011F00002010020B0EB510F09D0FFE70498C0684E
:10120000012804D0FFE701208DF817006DE243F6B6
:101210000001C4F20201086820F0F800049A126983
:1012200040EAC2000860FFE754E00498C06870B369
:10123000FFE70021C4F2472101200860FFF706FC08
:101240000390FFE743F60000C4F20200006800F0DC
:1012500002010020B0EB510F0CD1FFE7FFF7F6FBC6
:101260000399401A032804D3FFE703208DF81700E1
:101270003BE2E7E743F60001C4F20201086820F010
:10128000F800049A126940EAC200086021E00021D7
:10129000C4F2472100200860FFF7D8FB0390FFE766
:1012A00043F60000C4F20200006800F002010020D2
:1012B000B0EB510F0CD0FFE7FFF7C8FB0399401AC2
:1012C000032804D3FFE703208DF817000DE2E7E7BA
:1012D000FFE7FFE7FFE704980078000700284BD5F9
:1012E000FFE70498406918B3FFE740F68061C4F255
:1012F000472101200860FFF7A9FB0390FFE743F6B1
:101300007400C4F20200006800F002010020B0EB9B
:10131000510F0CD1FFE7FFF799FB0399401A0328FF
:1013200004D3FFE703208DF81700DEE1E7E722E0B2
:1013300040F68061C4F2472100200860FFF786FB79
:101340000390FFE743F67400C4F20200006800F067
:1013500002010020B0EB510F0CD0FFE7FFF776FB46
:101360000399401A032804D3FFE703208DF81700E0
:10137000BBE1E7E7FFE7FFE70498007840070028B4
:1013800040F1CE80FFE700208DF8070043F64000D3
:10139000C4F202000068C000002815D4FFE7FFE790
:1013A0000020009043F64000C4F20200016841F0C2
:1013B00080510160006800F0805000900098FFE7C5
:1013C00001208DF80700FFE747F20000C4F200009B
:1013D0000068C005002822D4FFE747F20001C4F2EC
:1013E0000001086840F480700860FFF72FFB03904D
:1013F000FFE747F20000C4F200000068C0050028C3
:101400000CD4FFE7FFF722FB0399401A032804D30B
:10141000FFE703208DF8170067E1EAE7FFE7FFE742
:1014200004988068012809D1FFE743F67001C4F2EF
:101430000201086840F0010008601FE0049880681D
:1014400005280DD1FFE743F67001C4F202010868D8
:1014500040F004000860086840F0010008600CE0FB
:1014600043F67001C4F20201086820F00100086030
:10147000086820F004000860FFE7FFE7FFE7049832
:101480008068F8B1FFE7FFF7E1FA0390FFE743F662
:101490007000C4F20200006800F002010020B0EB0E
:1014A000510F0ED1FFE7FFF7D1FA0399401A41F22D
:1014B0008931884204D3FFE703208DF8170014E137
:1014C000E5E71EE0FFF7C2FA0390FFE743F670007E
:1014D000C4F20200006800F002010020B0EB510FDE
:1014E0000ED0FFE7FFF7B2FA0399401A41F28931B3
:1014F000884204D3FFE703208DF81700F5E0E5E705
:10150000FFE79DF80700012809D1FFE743F64001F6
:10151000C4F20201086820F080500860FFE7FFE78E
:1015200004988069002800F0DC80FFE743F608009B
:10153000C4F20200006800F00C00082800F085806A
:10154000FFE70498806902285CD1FFE76021C4F2BC
:10155000472100200860FFF779FA0390FFE743F680
:101560000000C4F20200006800F000710020B0EB3F
:10157000516F0CD0FFE7FFF769FA0399401A03286F
:1015800004D3FFE703208DF81700AEE0E7E70499E6
:10159000C869D1F820C04B6A8A6A40EA0C0040EA68
:1015A0008310D2034FF6FF739A43A2F580321043A3
:1015B000C96A40EA016043F60401C4F2020108600E
:1015C0006021C4F2472101200860FFF73FFA039031
:1015D000FFE743F60000C4F20200006800F000716B
:1015E0000020B0EB516F0CD1FFE7FFF72FFA039902
:1015F000401A032804D3FFE703208DF8170074E096
:10160000E7E721E06021C4F2472100200860FFF7EE
:101610001DFA0390FFE743F60000C4F202000068E1
:1016200000F000710020B0EB516F0CD0FFE7FFF726
:101630000DFA0399401A032804D3FFE703208DF81D
:10164000170052E0E7E7FFE74AE0049880690128C5
:1016500004D1FFE701208DF8170046E043F60400AF
:10166000C4F202000068029004988069012831D019
:10167000FFE7029800F480000499C969884229D1E3
:10168000FFE7029800F03F000499096A884221D1DF
:10169000FFE7029847F6C07108400499496AB0EB29
:1016A000811F17D1FFE7029800F440300499896A3E
:1016B000C9034FF6FF729143A1F58031884209D1E9
:1016C000FFE7029800F070600499C96AB0EB016FFF
:1016D00004D0FFE701208DF8170006E0FFE7FFE7E1
:1016E000FFE700208DF81700FFE79DF8170006B010
:1016F00080BD000081B0009001B0704781B00090C3
:1017000001B0704781B0009001B0704785B0039080
:101710000291FFE7039890F83C00012804D1FFE70D
:1017200002208DF813007EE00399012081F83C002F
:10173000FFE7FFE70399022081F83D000398006866
:10174000406801900398006880680090019820F03C
:101750007000019002980168019808430190019877
:10176000039909684860039800680021C4F20101E8
:1017700088423CD0FFE703980068B0F1804F36D034
:10178000FFE70398006840F20041C4F2000188427C
:101790002DD0FFE70398006840F60001C4F2000175
:1017A000884224D0FFE70398006840F60041C4F265
:1017B000000188421BD0FFE70398006840F2004117
:1017C000C4F20101884212D0FFE70398006844F296
:1017D0000001C4F20101884209D0FFE703980068C4
:1017E00041F60001C4F2000188420ED1FFE70098E3
:1017F00020F0800000900298416800980843009013
:101800000098039909688860FFE70399012081F82F
:101810003D00FFE70399002081F83C00FFE700202E
:101820008DF81300FFE79DF8130005B07047000026
:1018300080B582B00090009820B9FFE701208DF8B4
:1018400007004DE0009890F83D00B0B9FFE700991F
:10185000002081F83C00009802F070FB0098806C3A
:1018600038B9FFE7009941F6E900C0F60000886446
:10187000FFE70098816C8847FFE70099022081F814
:101880003D00009951F8040B02F07EF80099012008
:1018900081F84600FFE70099012081F83E00009999
:1018A00081F83F00009981F84000009981F84100DB
:1018B000FFE7FFE70099012081F84200009981F8D5
:1018C0004300009981F84400009981F84500FFE742
:1018D0000099012081F83D0000208DF80700FFE706
:1018E0009DF8070002B080BD80B586B005900598D0
:1018F0000068B0F1804F12D1FFE7FFE700200490AD
:1019000043F64000C4F20200016841F001010160A9
:10191000006800F0010004900498FFE740E005989B
:10192000006840F60041C4F2000188421BD1FFE785
:10193000FFE70020039043F64000C4F20200016874
:1019400041F008010160006800F00800039003986E
:10195000FFE73220019000221146FFF74FF901986E
:10196000FFF742F91BE00598006844F20001C4F259
:101970000101884212D1FFE7FFE70020029043F601
:101980004400C4F20200016841F480310160006843
:1019900000F4803002900298FFE7FFE7FFE7FFE7DF
:1019A00006B080BD83B00190019890F83D000128F9
:1019B00004D0FFE701208DF80B006AE001990220B6
:1019C00081F83D0001980168C86840F00100C860D6
:1019D000019800680021C4F2010188423CD0FFE771
:1019E00001980068B0F1804F36D0FFE70198006899
:1019F00040F20041C4F2000188422DD0FFE7019877
:101A0000006840F60001C4F20001884224D0FFE7DC
:101A10000198006840F60041C4F2000188421BD0E2
:101A2000FFE70198006840F20041C4F201018842DA
:101A300012D0FFE70198006844F20001C4F20101EE
:101A4000884209D0FFE70198006841F60001C4F21E
:101A50000001884212D1FFE701980068806800F019
:101A6000070000900098062807D0FFE7019801685A
:101A7000086840F001000860FFE706E0019801688F
:101A8000086840F001000860FFE700208DF80B00B7
:101A9000FFE79DF80B0003B07047000080B586B0EB
:101AA0000490039100208DF80B00FFE7049890F854
:101AB0003C00012804D1FFE702208DF81700ABE0BD
:101AC0000499012081F83C00FFE7FFE70499022018
:101AD00081F83D000498006880680190019820F02A
:101AE00077000190019820F47F40019001980499BB
:101AF00009688860039800680090002872D0FFE7AA
:101B0000009810286ED0FFE7009820286AD0FFE7E1
:101B10000098302866D0FFE70098402855D0FFE7AE
:101B20000098502837D0FFE70098602840D0FFE7A2
:101B3000009870280BD0FFE70098B0F5805F05D0C3
:101B4000FFE70098B0F5005F16D052E055E004982A
:101B50000068039B5A689968DB6802F003F80498F0
:101B6000006880680190019840F07700019001982A
:101B700004990968886040E004980068039B5A68EB
:101B80009968DB6801F0EEFF04980168886840F40A
:101B90008040886031E004980068039A5168D268F8
:101BA00002F02CFA04980068502101F0F5FF24E0BF
:101BB00004980068039A5168D26802F047FA0498C2
:101BC0000068602101F0E8FF17E004980068039ABC
:101BD0005168D26802F012FA04980068402101F0BE
:101BE000DBFF0AE0049800680399096801F0D4FF5C
:101BF00003E001208DF80B00FFE70499012081F834
:101C00003D00FFE70499002081F83C00FFE79DF8C4
:101C10000B008DF81700FFE79DF8170006B080BD98
:101C200080B586B004900391049820B9FFE70120A5
:101C30008DF8170096E0049890F83D00B0B9FFE7E2
:101C40000499002081F83C00049802F077F9049888
:101C5000006F38B9FFE7049941F66D50C0F60000F7
:101C60000867FFE70498016F8847FFE7049902209F
:101C700081F83D0004980168886844F207029043A7
:101C80008860049951F8040B01F07EFE0498006806
:101C90008068029004980068806901900498006848
:101CA000006A009003980168029808430290019826
:101CB00040F203318843019003998868896940EABA
:101CC0000121019808430190019840F60C41884396
:101CD000019001984FF2F001884301900399C86880
:101CE000C96940EA012101980843019003990869F4
:101CF000096A000140EA0131019808430190009807
:101D000020F022000090009820F0880000900399B5
:101D10004868496940EA0111009808430090029818
:101D20000499096888600198049909688861009895
:101D30000499096808620499012081F84600049911
:101D400081F83E00049981F83F00049981F842002F
:101D5000049981F84300049981F83D0000208DF832
:101D60001700FFE79DF8170006B080BD80B58EB064
:101D70000D9000200C900B900A90099008900D98FF
:101D8000006840F20041C4F2000188423CD1FFE704
:101D9000FFE70020079043F64000C4F2020001680C
:101DA00041F002010160006800F00200079007980E
:101DB000FFE7FFE70020069043F63000C4F2020080
:101DC000016841F004010160006800F00400069021
:101DD0000698FFE7C0200890022009900021029198
:101DE0000A910B910C9040F60000C4F2020008A981
:101DF000FEF750FC029A1D2003901146FEF7FEFEEE
:101E00000398FEF7F1FE46E00D98006840F60001E9
:101E1000C4F2000188423DD1FFE7FFE700200590B2
:101E200043F64000C4F20200016841F00401016081
:101E3000006800F0040005900598FFE7FFE7002028
:101E4000049043F63000C4F20200016841F008013A
:101E50000160006800F0080004900498FFE74FF468
:101E60004050089002200990002100910A910B91A6
:101E70000C9040F60040C4F2020008A9FEF70AFCEC
:101E8000009A1E2001901146FEF7B8FE0198FEF759
:101E9000ABFEFFE7FFE70EB080BD000080B586B067
:101EA00004900391049890F83E008DF80B0004987C
:101EB00090F83F008DF80A00049890F842008DF8E1
:101EC0000900049890F843008DF808000398B8B909
:101ED000FFE79DF80B00012805D1FFE79DF80900F9
:101EE000012804D0FFE701208DF8170079E004995C
:101EF000022081F83E00049981F84200FFE742E0A9
:101F00000398042817D1FFE79DF80A00012805D19E
:101F1000FFE79DF80800012804D0FFE701208DF8B5
:101F200017005EE00499022081F83F00049981F8CF
:101F30004300FFE726E09DF80B0001280FD1FFE7E3
:101F40009DF80A0001280AD1FFE79DF80900012841
:101F500005D1FFE79DF80800012804D0FFE7012024
:101F60008DF817003DE00499022081F83E000499A5
:101F700081F83F00049981F84200049981F84300F8
:101F8000FFE7FFE7FFE70398019020B1FFE7019823
:101F9000042807D00DE0049800680021012201F018
:101FA000C5FD14E0049800680421012201F0BEFD83
:101FB0000DE00498006800210122009201F0B6FDB6
:101FC000009A04980068042101F0B0FDFFE704982E
:101FD0000168086840F00100086000208DF81700D3
:101FE000FFE79DF8170006B080BD000081B00090AB
:101FF00001B0704781B0009001B0704781B000908F
:1020000001B0704780B584B0039003980068C06841
:10201000029003980068006901909DF80400800711
:10202000002827D5FFE79DF808008007002820D565
:10203000FFE7039801686FF002000861039901202F
:102040000877039800688069800728B1FFE7039844
:10205000D0F89010884708E00398D0F89810884787
:102060000398D0F89C108847FFE703990020087771
:10207000FFE7FFE79DF804004007002828D5FFE7A9
:102080009DF808004007002821D5FFE70398016864
:102090006FF0040008610399022008770398006834
:1020A000806910F4407F05D0FFE70398D0F89010C6
:1020B000884708E00398D0F8981088470398D0F82C
:1020C0009C108847FFE7039900200877FFE7FFE7A8
:1020D0009DF804000007002827D5FFE79DF80800B9
:1020E0000007002820D5FFE7039801686FF008007B
:1020F000086103990420087703980068C069800785
:1021000028B1FFE70398D0F89010884708E00398BB
:10211000D0F8981088470398D0F89C108847FFE7BC
:10212000039900200877FFE7FFE79DF80400C00649
:10213000002828D5FFE79DF80800C006002821D513
:10214000FFE7039801686FF0100008610399082009
:10215000087703980068C06910F4407F05D0FFE756
:102160000398D0F89010884708E00398D0F89810AA
:1021700088470398D0F89C108847FFE70399002010
:102180000877FFE7FFE79DF80400C00780B1FFE78D
:102190009DF80800C00750B1FFE7039801686FF091
:1021A000010008610398D0F880108847FFE7FFE737
:1021B0009DF804000006002811D5FFE79DF80800EF
:1021C000000600280AD5FFE7039801686FF0800039
:1021D00008610398D0F8B0108847FFE7FFE79DF843
:1021E00004004006002811D5FFE79DF808004006CE
:1021F00000280AD5FFE7039801686FF040000861E6
:102200000398D0F888108847FFE7FFE79DF804009F
:102210008006002811D5FFE79DF8080080060028F9
:102220000AD5FFE7039801686FF020000861039862
:10223000D0F8A8108847FFE7FFE704B080BD000092
:1022400080B588B007900020069005900490039018
:10225000029007980068B0F1804F21D1FFE7FFE7B7
:102260000020019043F63000C4F20200016841F002
:1022700001010160006800F0010001900198FFE792
:102280000920029002200390002004900590012074
:1022900006900020C4F2020002A9FEF7FBF92BE031
:1022A0000798006844F20001C4F20101884222D17B
:1022B000FFE7FFE70020009043F63000C4F2020081
:1022C000016841F010010160006800F0100000900A
:1022D0000098FFE760200290022003900020049005
:1022E00005900320069041F20000C4F2020002A90A
:1022F000FEF7D0F9FFE7FFE708B080BD81B000909E
:1023000001B0704780B586B004900391029200201E
:102310008DF80700FFE7049890F83C00012804D1ED
:10232000FFE702208DF8170089E00499012081F869
:102330003C00FFE7FFE7029800900C2800F2708055
:102340000099DFE801F0076D6D6D206D6D6D3A6DE0
:102350006D6D530004980068039901F033FC0498F4
:102360000168886940F008008861049801688869FC
:1023700020F0040088610398026904980168886964
:102380001043886150E004980068039901F090FCC4
:1023900004980168886940F40060886104980168C5
:1023A000886920F480608861039802690498016854
:1023B000886940EA0220886136E004980068039941
:1023C00001F0F0FC04980168C86940F00800C86199
:1023D00004980168C86920F00400C8610398026984
:1023E00004980168C8691043C8611DE0049800683A
:1023F000039901F051FD04980168C86940F4006038
:10240000C86104980168C86920F48060C8610398B5
:10241000026904980168C86940EA0220C86103E0C3
:1024200001208DF80700FFE7FFE70499002081F8FD
:102430003C00FFE79DF807008DF81700FFE79DF8C7
:10244000170006B080BD000080B582B000900098F3
:1024500020B9FFE701208DF807004DE0009890F8C3
:102460003D00B0B9FFE70099002081F83C000098DA
:1024700001F064FD0098006E38B9FFE7009942F260
:102480000150C0F600000866FFE70098016E88471B
:10249000FFE70099022081F83D00009951F8040BF4
:1024A00001F072FA0099012081F84600FFE70099D7
:1024B000012081F83E00009981F83F00009981F8E1
:1024C0004000009981F84100FFE7FFE700990120F3
:1024D00081F84200009981F84300009981F8440096
:1024E000009981F84500FFE70099012081F83D003F
:1024F00000208DF80700FFE79DF8070002B080BDBF
:1025000081B0009001B0704781B0009001B0704779
:1025100081B0009001B0704780B58CB00A900991ED
:10252000099828B9FFE70A9890F83E0007901CE048
:102530000998042805D1FFE70A9890F83F00069013
:1025400010E00998082805D1FFE70A9890F84000A4
:10255000059004E00A9890F841000590FFE705987F
:102560000690FFE706980790FFE70798012804D038
:10257000FFE701208DF82F00AFE0099828B9FFE7A9
:102580000A99022081F83E001EE00998042806D12D
:10259000FFE70A99022081F83F00049012E00998B1
:1025A000082806D1FFE70A99022081F8400003902D
:1025B00005E00A99022081F841000390FFE70398A3
:1025C0000490FFE70498FFE70A9800680999012240
:1025D000019201F0ABFA01980A9909680022C4F24D
:1025E0000102914202900CD0FFE70A9800684FF672
:1025F0000041CBF6FE710844B0FA80F04009029029
:10260000FFE70298C00738B1FFE70A980168486CF5
:1026100040F400404864FFE70A9800680021C4F2D3
:10262000010188423CD0FFE70A980068B0F1804F72
:1026300036D0FFE70A98006840F20041C4F200017A
:1026400088422DD0FFE70A98006840F60001C4F2E6
:102650000001884224D0FFE70A98006840F6004154
:10266000C4F2000188421BD0FFE70A98006840F2DC
:102670000041C4F20101884212D0FFE70A980068C5
:1026800044F20001C4F20101884209D0FFE70A9830
:10269000006841F60001C4F20001884212D1FFE750
:1026A0000A980068806800F00700089008980628DB
:1026B00007D0FFE70A980168086840F00100086049
:1026C000FFE706E00A980168086840F0010008602A
:1026D000FFE700208DF82F00FFE79DF82F000CB0DA
:1026E00080BD000080B582B001900198006842F280
:1026F0000001C4F20001884203D1FFE7FEF7ACF904
:10270000FFE702B080BD000081B0009001B07047CB
:1027100087B005908DF81310039200208DF80B0000
:10272000039820B9FFE701208DF81B00F9E0059818
:1027300090F83D00012840F09780FFE79DF81300D6
:10274000014601911A2800F28A800199DFE801F020
:102750000E12161A1E22262A2E32363A3E42464BB8
:1027600050555A5F64696E73787D820003980599AD
:10277000886478E003980599C86474E00398059923
:10278000086570E00398059948656CE00398059921
:10279000886568E003980599C86564E00398059921
:1027A000086660E00398059948665CE0039805991F
:1027B000886658E003980599C86654E0039805991F
:1027C000086750E00398059948674CE0039805991D
:1027D000886748E003980599C86744E0039805991D
:1027E000C1F880003FE003980599C1F884003AE001
:1027F00003980599C1F8880035E003980599C1F858
:102800008C0030E003980599C1F890002BE0039804
:102810000599C1F8940026E003980599C1F898003D
:1028200021E003980599C1F89C001CE003980599E4
:10283000C1F8A00017E003980599C1F8A40012E0C0
:1028400003980599C1F8A8000DE003980599C1F80F
:10285000AC0008E003980599C1F8B00003E001203E
:102860008DF80B00FFE757E0059890F83D00002831
:102870004DD1FFE79DF81300014600910D2841D886
:102880000099DFE801F0070B0F13171B1F23272BFD
:102890002F33373B03980599886437E003980599EF
:1028A000C86433E00398059908652FE003980599FB
:1028B00048652BE003980599886527E003980599FA
:1028C000C86523E00398059908661FE003980599F9
:1028D00048661BE003980599886617E003980599F8
:1028E000C86613E00398059908670FE003980599F7
:1028F00048670BE003980599886707E003980599F6
:10290000C86703E001208DF80B00FFE703E001201A
:102910008DF80B00FFE7FFE79DF80B008DF81B001B
:10292000FFE79DF81B0007B07047000081B00090E2
:1029300001B0704781B0009001B0704782B0019043
:10294000ADF8021002B0704781B0009001B070473E
:1029500081B0009001B0704781B0009001B0704725
:1029600081B0009001B0704780B592B0119011987D
:1029700000680068109011980068C0680F90119866
:10298000006840690E9000200D900C90109800F0A7
:102990000F000D900D9888B9FFE79DF84000800664
:1029A00000280AD5FFE79DF83C008006002804D5E2
:1029B000FFE7119801F01AFC02E2FFE70D980028EA
:1029C00000F0C280FFE79DF83800C00738B9FFE784
:1029D000BDF83C0010F4907F00F0B680FFE79DF852
:1029E0004000C00758B1FFE79DF83D00C00730B177
:1029F000FFE71199486C40F001004864FFE79DF83B
:102A00004000400700280BD5FFE79DF83800C007BD
:102A100030B1FFE71199486C40F002004864FFE7CD
:102A20009DF84000800700280BD5FFE79DF838008F
:102A3000C00730B1FFE71199486C40F004004864CA
:102A4000FFE79DF840000007002811D5FFE79DF83B
:102A50003C008006002805D4FFE79DF83800C00739
:102A600030B1FFE71199486C40F008004864FFE777
:102A70001198406C002866D0FFE79DF84000800662
:102A800000280AD5FFE79DF83C008006002804D501
:102A9000FFE7119801F0AAFBFFE711980068406971
:102AA000C0F380100C901198406C0007002804D4EB
:102AB000FFE70C9800283ED0FFE7119801F0FEFADE
:102AC000119800684069400600282FD5FFE7FFE70E
:102AD000FFE71198006850E8050F20F040000B90C8
:102AE000FFE70B991198026842E805100028F0D121
:102AF000FFE7FFE71198C06B98B1FFE71198C16B32
:102B000044F2A100C0F6000008651198C06BFDF703
:102B10009FFD28B1FFE71198C06B016D8847FFE763
:102B200003E01198816D8847FFE703E01198816DFC
:102B30008847FFE706E01198816D884711990020CA
:102B40004864FFE7FFE73BE11198006B012840F084
:102B50001781FFE79DF84000C006002840F1108172
:102B6000FFE79DF83C00C006002840F10981FFE71F
:102B7000FFE700200A901198006800680A901198F9
:102B8000006840680A900A98FFE711980068406959
:102B90004006002840F19A80FFE71198C06B00685A
:102BA0004068ADF82600BDF82600002875D0FFE784
:102BB000BDF826001199898D88426EDAFFE7BDF8CD
:102BC00026001199C8851198C06BC069B0F5807F47
:102BD00058D0FFE7FFE7FFE71198006850E8030FC0
:102BE00020F480700890FFE708991198026842E885
:102BF00003100028F0D1FFE7FFE7FFE7FFE7119898
:102C0000006850E8050F20F001000790FFE70799E2
:102C10001198026842E805100028F0D1FFE7FFE7AD
:102C2000FFE7FFE71198006850E8050F20F040002B
:102C30000690FFE706991198026842E805100028FF
:102C4000F0D1FFE7FFE71199202081F842001199A8
:102C500000200863FFE7FFE71198006850E8030FC2
:102C600020F010000590FFE705991198026842E8EE
:102C700003100028F0D1FFE7FFE71198C06BFDF7C4
:102C800071FCFFE71199022048631198C26E818D93
:102C9000C38DC91A89B2904717E0BDF82600119973
:102CA000898D884210D1FFE71198C06BC069B0F5DB
:102CB000807F08D1FFE71199022048631198C26E06
:102CC000818D9047FFE7FFE7FFE779E01199888D55
:102CD000C98D401AADF812001198C08D00284ED051
:102CE000FFE7BDF81200002849D0FFE7FFE7FFE744
:102CF0001198006850E8030F20F490700390FFE7EC
:102D000003991198026842E803100028F0D1FFE708
:102D1000FFE7FFE7FFE71198006850E8050F20F094
:102D200001000290FFE702991198026842E805103D
:102D30000028F0D1FFE7FFE71199202081F8420039
:102D4000119900200863FFE7FFE71198006850E839
:102D5000030F20F010000190FFE70199119802681D
:102D600042E803100028F0D1FFE7FFE711990220A5
:102D700048631198C26EBDF812109047FFE71FE03C
:102D80009DF84000000600280AD5FFE79DF83C00AA
:102D90000006002804D5FFE7119801F035FC0FE08C
:102DA0009DF84000400600280AD5FFE79DF83C004A
:102DB0004006002804D5FFE7119801F0C9F9FFE7A4
:102DC00012B080BD80B582B00090009820B9FFE7B6
:102DD00001208DF807004EE00098806908B1FFE7F8
:102DE00000E0FFE7009890F84100B0B9FFE70099D4
:102DF000002081F84000009801F0BEF90098006FB3
:102E000038B9FFE7009942F68160C0F60000086714
:102E1000FFE70098016F8847FFE70099242081F8B9
:102E2000410000980168C86820F40050C86000980C
:102E300001F01AFB00980168086920F490400861CD
:102E400000980168486920F02A00486100980168EC
:102E5000C86840F40050C860009900204864009A97
:102E6000202182F84110009A82F8421000994863AC
:102E70008DF80700FFE79DF8070002B080BD000055
:102E800080B590B00F9000200E900D900C900B909C
:102E90000A900F98006844F60001C4F200018842CD
:102EA00069D1FFE7FFE70020099043F64000C4F234
:102EB0000200016841F480210160006800F4802074
:102EC00009900998FFE7FFE70020089043F63000DB
:102ED000C4F20200016841F002010160006800F0E4
:102EE000020008900898FFE7FFE70020079043F6EC
:102EF0003000C4F20200016841F00801016000687E
:102F000000F0080007900798FFE74FF480600A90F0
:102F1000022001900B90002005900C90032002905D
:102F20000D90072003900E9040F20040C4F2020082
:102F30000AA90491FDF7AEFBDDF804C0029A0398DC
:102F40000499059B4FF4007ECDF828E0CDF82CC005
:102F50000C930D920E9040F60040C4F20200FDF773
:102F600099FB059A272006901146FDF747FE069823
:102F7000FDF73AFEFFE710B080BD000080B584B0D9
:102F800002900191ADF80220029890F842002028AA
:102F900017D1FFE7019820B1FFE7BDF8020020B983
:102FA000FFE701208DF80F000FE002990020086371
:102FB00002980199BDF8022001F0F4FA8DF80F0093
:102FC00003E002208DF80F00FFE79DF80F0004B02A
:102FD00080BD000087B005908DF81310039200208B
:102FE0008DF80B00039848B9FFE70599486C40F04D
:102FF0002000486401208DF81B0078E0059890F8C7
:103000004100202842D1FFE79DF8130001460191BD
:103010000C2831D80199DFE801F0070B0F13171BBB
:103020001F232F2F2F272B000398059988642CE04E
:1030300003980599C86428E003980599086524E079
:1030400003980599486520E00398059988651CE078
:1030500003980599C86518E003980599086614E077
:1030600003980599486610E00398059908670CE0F5
:1030700003980599486708E00599486C40F02000DE
:10308000486401208DF80B00FFE72BE0059890F8CD
:103090004100E8B9FFE79DF81300014600910B28B5
:1030A00004D0FFE700980C2804D007E003980599A6
:1030B00008670CE003980599486708E00599486C93
:1030C00040F02000486401208DF80B00FFE708E085
:1030D0000599486C40F02000486401208DF80B00F1
:1030E000FFE7FFE79DF80B008DF81B00FFE79DF859
:1030F0001B0007B07047000081B0009001B070471E
:1031000081B0009001B0704781B0009001B070476D
:1031100081B0009001B07047FFE7FEE740F29051A8
:10312000C2F20001012008707047000086B0FFE77E
:103130000020059043F63000C4F20200016841F01F
:1031400010010160006800F0100005900598FFE78D
:10315000FFE70020049043F63000C4F2020001684B
:1031600041F004010160006800F00400049004983C
:10317000FFE7FFE70020039043F63000C4F20200AF
:10318000016841F080010160006800F08000039058
:103190000398FFE7FFE70020029043F63000C4F2F7
:1031A0000200016841F001010160006800F00100C7
:1031B00002900298FFE7FFE70020019043F63000FD
:1031C000C4F20200016841F002010160006800F0F1
:1031D000020001900198FFE7FFE70020009043F60E
:1031E0003000C4F20200016841F00801016000688B
:1031F00000F0080000900098FFE706B0704700005C
:1032000080B58EB0002100910D910C910B910A9127
:1032100009910891079106910591049103910291FA
:10322000019140F29410C2F200004FF0804202601F
:1032300040F24F12426081606322C26001618021CE
:103240008161FEF7F5FA18B1FFE7FDF787F9FFE7AF
:103250004FF480500A9040F29410C2F200000AA984
:10326000FEF71CFC18B1FFE7FDF778F9FFE740F225
:103270009410C2F20000FFF7E7F818B1FFE7FDF77E
:103280006DF9FFE700200890099040F29410C2F217
:10329000000008A9FEF73AFA18B1FFE7FDF75EF95A
:1032A000FFE760200190002202920392059240F213
:1032B0009410C2F2000001A9FFF724F818B1FFE74B
:1032C000FDF74CF9FFE740F29410C2F2000001A9AB
:1032D0000C22FFF717F818B1FFE7FDF73FF9FFE7FA
:1032E00040F29410C2F20000FEF7AAFF0EB080BDBB
:1032F00080B58EB005A801902421FDF743F801990F
:10330000002202920492039240F24820C2F200008E
:1033100040F20043C4F200030360426082604FF653
:10332000FF73C360026182610123059306920793D4
:10333000089209920A920B930C920D92FEF770FC80
:1033400018B1FFE7FDF70AF9FFE7002003900490AA
:1033500040F24820C2F2000003A9FEF7D7F918B1E5
:10336000FFE7FDF7FBF8FFE70EB080BD80B58EB03C
:1033700005A801902421FDF705F801990023029387
:103380000493039340F2FC20C2F2000040F60002D6
:10339000C4F200020260436083604FF6FF72C260B5
:1033A000036183610322059206934FF0010CCDF86F
:1033B0001CC008930F2209920A93CDF82CC00C93DD
:1033C0000D92FEF72DFC18B1FFE7FDF7C7F8FFE7F8
:1033D00000200390049040F2FC20C2F2000003A9F8
:1033E000FEF794F918B1FFE7FDF7B8F8FFE70EB064
:1033F00080BD000080B588B0002101910791069141
:10340000059104910391029140F2B030C2F20000A4
:1034100040F60042C4F20002026040F247324260CD
:10342000816040F2E732C26001618161FEF700FA1B
:1034300018B1FFE7FDF792F8FFE74FF480500490D2
:1034400040F2B030C2F2000004A9FEF727FB18B129
:10345000FFE7FDF783F8FFE700200290039040F2BA
:10346000B030C2F2000002A9FEF750F918B1FFE730
:10347000FDF774F8FFE708B080BD000080B58CB0A0
:10348000002100910B910A910991089107910691F1
:103490000591049103910291019140F26440C2F2BE
:1034A000000044F20002C4F20102026040F24F1236
:1034B000426081606322C260016180218161FEF708
:1034C000B7F918B1FFE7FDF749F8FFE74FF480506F
:1034D000089040F26440C2F2000008A9FEF7DEFA4C
:1034E00018B1FFE7FDF73AF8FFE740F26440C2F297
:1034F0000000FEF7A9FF18B1FFE7FDF72FF8FFE77F
:1035000060200190002202920392059240F26440F2
:10351000C2F2000001A9FEF7F5FE18B1FFE7FDF7C2
:103520001DF8FFE740F26440C2F2000001A9042246
:10353000FEF7E8FE18B1FFE7FDF710F8FFE740F2ED
:103540006440C2F20000FEF77BFE0CB080BD0000BC
:1035500080B582B040F21850C2F20000019044F6EB
:103560000001C4F20001016048F2A061C0F2010153
:1035700041604FF4805181604FF40051C1604FF4BD
:10358000806101610C21416100218161C161FFF70E
:1035900019FC18B1FFE7FCF7E1FFFFE702B080BDBF
:1035A000FFE7FEE780B584B003A9019101460198C9
:1035B00080ED000A8DF80B1090ED000AB5EE400A80
:1035C000F1EE10FA0FDBFFE7019890ED000A01F031
:1035D000A9F99DF80B1000F03BF89DF80B100020A6
:1035E00000F018F812E09DF80B10002000F030F801
:1035F000019890ED001A9FED060A30EE410A01F0A5
:1036000091F99DF80B1000F005F8FFE704B080BDBC
:103610000000008081B0ADF802008DF801109DF827
:10362000010048B9FFE7BDF8020040F29411C2F270
:1036300000010968086408E0BDF8020040F2644136
:10364000C2F2000109688863FFE701B0704700001B
:1036500081B0ADF802008DF801109DF8010048B965
:10366000FFE7BDF8020040F29411C2F200010968C0
:10367000486308E0BDF8020040F26441C2F2000174
:1036800009684863FFE701B07047000081B08DF81A
:1036900001009DF8010048B9FFE740F2FC20C2F2AA
:1036A00000000068406AADF8020008E040F24820DF
:1036B000C2F200000068406AADF80200FFE7BDF802
:1036C000020001B070470000FFE7FEE788B00790F6
:1036D00006910592079800F0070004900498C0F145
:1036E0000700052803D3FFE70420019004E00498B5
:1036F000C0F107000190FFE701980390049804309F
:10370000062803D8FFE70020009003E00498033860
:103710000090FFE70098029006980399012202FAB0
:1037200001F101390840029B984005999A40013AFD
:103730001140084308B0704784B00390029102988A
:1037400090ED020A039890ED021A30EE410A9FEDC7
:10375000401A20EE010A8DED010A029890ED010A4F
:10376000B6EE001AB4EE410AF1EE10FA0EDDFFE7F4
:10377000029890ED020A039890ED021A30EE410A89
:10378000B5EE400AF1EE10FA2FDBFFE7029890ED5C
:10379000010ABEEE001AB4EE410AF1EE10FA0EDA9A
:1037A000FFE7029890ED020A039890ED021A30EEBE
:1037B000410AB5EE400AF1EE10FA16DCFFE7029876
:1037C00090ED010ABEEE001AB4EE410AF1EE10FAD5
:1037D00022DBFFE7029890ED010AB6EE001AB4EE84
:1037E000410AF1EE10FA17DCFFE7029890ED011A9A
:1037F00090ED020A039991ED022A30EE420AB2EEF0
:10380000042A20EE020A9FED132A20EE020A30EE6F
:10381000010A80ED010AFFE7039890ED030AB2EE7A
:10382000041A80EE010A9FED0A1A20EE010A8DEDBE
:10383000000A9DED010A029890ED011A30EE010A8E
:103840009DED001A30EE010A80ED000A04B07047C9
:103850000AD7233CBD3786357047000040F2AC5193
:10386000C2F200010120087070470000704700009C
:103870007047000080B594B008A83021FCF782FDA5
:10388000002007900690059004900390FFE7002029
:10389000029043F64000C4F20200016841F08051FA
:1038A0000160006800F0805002900298FFE7FFE797
:1038B0000020019047F20000C4F20000016841F4CA
:1038C00080410160006800F4804001900198FFE7AA
:1038D000012008904FF48030099002200E904FF4A0
:1038E00080010F91192110914FF4A871119112903C
:1038F0000420139008A8FDF79DFB18B1FFE7FCF723
:103900002DFEFFE70F200390022004900020059079
:103910004FF4A05006904FF48050079003A8052163
:10392000FDF78EF918B1FFE7FCF718FEFFE714B0BA
:1039300080BD00004EF68851CEF20001086840F4C8
:10394000700008607047000080B540F24820C2F265
:103950000000FEF757FB80BD80B540F2FC20C2F2AC
:103960000000FEF74FFB80BD80B540F2B030C2F2E0
:103970000000FEF747FB80BD80B540F2E000C2F2D8
:103980000000FEF73FFB80BD83B0029001910298DA
:103990000068009002980021C4F20101884225D0FD
:1039A000FFE70298B0F1804F20D0FFE7029840F285
:1039B0000041C4F20001884218D0FFE7029840F6A7
:1039C0000001C4F20001884210D0FFE7029840F6DF
:1039D0000041C4F20001884208D0FFE7029840F29B
:1039E0000041C4F2010188420AD1FFE7009820F0AB
:1039F0007000009001984168009808430090FFE72C
:103A000002980021C4F20101884255D0FFE70298D4
:103A1000B0F1804F50D0FFE7029840F20041C4F26D
:103A20000001884248D0FFE7029840F60001C4F246
:103A30000001884240D0FFE7029840F60041C4F2FE
:103A40000001884238D0FFE7029840F20041C4F2FA
:103A50000101884230D0FFE7029844F20001C4F22D
:103A60000101884228D0FFE7029844F20041C4F2E5
:103A70000101884220D0FFE7029844F60001C4F219
:103A80000101884218D0FFE7029841F60001C4F214
:103A90000001884210D0FFE7029841F60041C4F2CD
:103AA0000001884208D0FFE7029842F20001C4F208
:103AB000000188420AD1FFE7009820F4407000908E
:103AC0000198C168009808430090FFE7009820F033
:103AD0008000019949690843009001988068029923
:103AE000C862019800680299886202980021C4F2B5
:103AF0000101884208D0FFE7029840F20041C4F279
:103B00000101884205D1FFE7019800690299086325
:103B1000FFE70299086840F004000860029901205C
:103B2000486100980299086003B0704784B0039020
:103B300002910192029800F01F010120884000903C
:103B4000009A0399086A904308620198029901F06B
:103B50001F0100FA01F20399086A1043086204B0D9
:103B60007047000085B0049003910292019304987D
:103B700080680090009820F47F400090039802999C
:103B8000019A41EA022101430098084300900098FD
:103B90000499886005B0704783B002900191029843
:103BA00080680090009820F07000009001980099C3
:103BB000084340F00700009000980299886003B025
:103BC0007047000085B0049003910498006A01904A
:103BD0000499086A20F00100086204984068009087
:103BE000049880690290029820F070000290029878
:103BF00020F00300029003980168029808430290A5
:103C0000019820F002000190039881680198084310
:103C1000019004980021C4F20101884208D0FFE716
:103C2000049840F20041C4F2010188420ED1FFE73E
:103C3000019820F0080001900398C168019808439A
:103C40000190019820F004000190FFE70498002102
:103C5000C4F20101884208D0FFE7049840F2004115
:103C6000C4F20101884213D1FFE7009820F480706C
:103C70000090009820F4007000900398416900982B
:103C80000843009003988169009808430090FFE77B
:103C900000980499486002980499886103984068E4
:103CA0000499486301980499086205B070470000C0
:103CB00085B0049003910498006A01900499086A01
:103CC00020F0100008620498406800900498806911
:103CD0000290029820F4E0400290029820F4407094
:103CE000029003980168029840EA0120029001982E
:103CF00020F02000019003988168019840EA0110AB
:103D0000019004980021C4F20101884208D0FFE725
:103D1000049840F20041C4F2010188420FD1FFE74C
:103D2000019820F0800001900398C168019840EA52
:103D300001100190019820F040000190FFE70498E5
:103D40000021C4F20101884208D0FFE7049840F244
:103D50000041C4F20101884215D1FFE7009820F428
:103D600080600090009820F4006000900398416902
:103D7000009840EA8100009003988169009840EA29
:103D800081000090FFE70098049948600298049928
:103D900088610398406804998863019804990862CF
:103DA00005B0704785B0049003910498006A0190B3
:103DB0000499086A20F480700862049840680090B2
:103DC0000498C0690290029820F070000290029856
:103DD00020F00300029003980168029808430290C3
:103DE000019820F40070019003988168019840EADE
:103DF0000120019004980021C4F20101884208D0FA
:103E0000FFE7049840F20041C4F2010188420FD15B
:103E1000FFE7019820F4006001900398C1680198C1
:103E200040EA01200190019820F480600190FFE7B2
:103E300004980021C4F20101884208D0FFE70498E9
:103E400040F20041C4F20101884215D1FFE7009819
:103E500020F480500090009820F4005000900398C7
:103E60004169009840EA0110009003988169009828
:103E700040EA01100090FFE700980499486002981A
:103E80000499C861039840680499C863019804992B
:103E9000086205B07047000085B004900391049853
:103EA000006A01900499086A20F48050086204981E
:103EB000406800900498C0690290029820F4E040A5
:103EC0000290029820F440700290039801680298D2
:103ED00040EA01200290019820F4005001900398DC
:103EE0008168019840EA0130019004980021C4F2F1
:103EF0000101884208D0FFE7049840F20041C4F273
:103F0000010188420BD1FFE7009820F48040009027
:103F100003984169009840EA81100090FFE70098FB
:103F20000499486002980499C8610398406804990C
:103F3000086401980499086205B0704781B0009048
:103F4000009942F2E560C0F60000C1F880000099D7
:103F500042F20970C0F60000C1F88400009942F6F0
:103F60002D10C0F60000C1F88800009942F6351007
:103F7000C0F60000C1F88C00009941F6F570C0F65B
:103F80000000C1F89000009941F6FD70C0F60000F5
:103F9000C1F89400009942F2FD20C0F60000C1F87B
:103FA0009800009942F20950C0F60000C1F89C0048
:103FB000009942F21150C0F60000C1F8A00000992B
:103FC00041F6ED70C0F60000C1F8A400009941F27E
:103FD000FD60C0F60000C1F8A800009941F205702C
:103FE000C0F60000C1F8AC00009941F2F560C0F6DF
:103FF0000000C1F8B00001B07047000085B0049027
:10400000039102920498006A00900499086A20F0D3
:1040100001000862049880690190019820F0F00086
:1040200001900299019840EA01100190009820F057
:104030000A000090039900980843009001980499A1
:10404000886100980499086205B0704785B00490B3
:10405000039102920498006A00900499086A20F083
:1040600010000862049880690190019820F4704063
:1040700001900299019840EA01300190009820F0E7
:10408000A00000900399009840EA01100090019868
:104090000499886100980499086205B0704700008F
:1040A00080B582B001900198806B0090009900204B
:1040B000C8850098816D884702B080BD84B00390A8
:1040C000FFE7FFE70398006850E8030F20F49070C3
:1040D0000290FFE702990398026842E80310002863
:1040E000F0D1FFE7FFE7FFE7FFE70398006850E83C
:1040F000050F20F001000190FFE701990398026885
:1041000042E805100028F0D1FFE7FFE70398006BB5
:10411000012814D1FFE7FFE7FFE70398006850E8A4
:10412000030F20F010000090FFE700990398026849
:1041300042E803100028F0D1FFE7FFE7FFE703990B
:10414000202081F8420003990020086304B07047E2
:1041500080B582B0019001980168C86820F04000E5
:10416000C8600199202081F841000198C16C8847FE
:10417000002002B080BD000081B00090009943F2A1
:104180001110C0F600008864009943F20910C0F6CF
:104190000000C864009943F20110C0F600000865F1
:1041A000009943F2F900C0F600004865009942F614
:1041B0006110C0F600008865009942F64910C0F60B
:1041C0000000C865009942F65910C0F60000086664
:1041D000009942F65110C0F600004866009942F678
:1041E0003D10C0F60000C86601B0704780B586B0CB
:1041F0000490002003900290049890F84200222836
:1042000040F0A080FFE704988068B0F5805F13D18C
:10421000FFE70498006978B9FFE70498806A029084
:104220000498006840686FF35F2002990880049941
:10423000886A0230886223E00498806A03900498B8
:104240008068B0F5805F08D0FFE70498806850B9B7
:10425000FFE70498006930B9FFE7049800684068F8
:104260000399087007E004980068406800F07F0038
:1042700003990870FFE70499886A01308862FFE7B4
:104280000499C88D0138C8850004002856D1FFE77D
:1042900004980168C86820F02000C860049801688C
:1042A000C86820F48070C86004980168486920F0EC
:1042B000010048610499202081F8420004990020FF
:1042C00048630498006B012830D1FFE7049900206F
:1042D0000863FFE7FFE70498006850E8030F20F049
:1042E00010000190FFE701990498026842E803106A
:1042F0000028F0D1FFE7FFE7049800680068C006D7
:1043000000280ED5FFE7FFE7002000900498006822
:104310000068009004980068406800900098FFE7EB
:10432000FFE70498C26E818D904703E00498416DC9
:104330008847FFE700208DF8170007E000208DF880
:10434000170003E002208DF81700FFE79DF8170023
:1043500006B080BD80B582B0019040F2C400C2F2C8
:10436000000000780146009120B1FFE70098012885
:1043700029D076E040F2C500C2F2000000780F2894
:1043800018D1FFE740F2C401C2F200010120087019
:1043900040F2C500C2F20000007840F29001C2F283
:1043A0000001087040F2DD01C2F20001087801301E
:1043B0000870FFE7019840F2C501C2F20001012236
:1043C000FEF7DCFD4DE040F2C500C2F200000178CE
:1043D00040F2DD00C2F20000037840F29002C2F227
:1043E0000002D1540078172808DCFFE740F2DD0115
:1043F000C2F2000108780130087029E040F2DD00C7
:10440000C2F200000078182821D1FFE740F29000A6
:10441000C2F20000007E38B9FFE740F2DC01C2F2D0
:1044200000010120087006E040F2DC01C2F2000148
:1044300000200870FFE740F2C401C2F20001002032
:10444000087040F2DD01C2F200010870FFE7FFE7EB
:10445000019840F2C501C2F200010122FEF78EFD73
:10446000FFE702B080BD000080B586B005900598DA
:104470000068006920F44050059A1168D268104322
:104480000861059988680B694A69C969184310432E
:104490000843049005980068C06849F20C6188439D
:1044A0000499084305990968C8600598006840693F
:1044B00020F44070059A116892691043486105988C
:1044C000006841F20001C4F20101884209D0FFE70F
:1044D0000598006841F20041C4F20101884204D10C
:1044E000FFE7FCF721FD039003E0FCF70BFD0390D1
:1044F000FFE70598C069B0F5004F29D1FFE70398A1
:104500001921A0FB0101059A1368029353685A0010
:10451000DB0FFBF7BFFE0299864648F21F53C5F238
:10452000EB13AEFB0320420910014FF0640C02FBB9
:104530001CEC322202EBCC02A2FB0332F82303EA8A
:10454000521300EB4300C2F342121044886026E08D
:1045500003981921A0FB0101059A13680193536880
:104560009A009B0FFBF796FE0199844648F21F5272
:10457000C5F2EB12ACFB02304309642003FB10CC04
:10458000322000EB0C10A0FB0202F02000EA5210D7
:1045900000EB0310C2F3431210448860FFE706B03B
:1045A00080BD000083B002900191ADF80220019817
:1045B00002998862BDF8020002998885BDF8020060
:1045C0000299C8850299002048640299222081F846
:1045D00042000298006938B1FFE702980168C86894
:1045E00040F48070C860FFE702980168486940F0B5
:1045F0000100486102980168C86840F02000C86066
:10460000002003B07047000083B00190019890F83B
:10461000410021283AD1FFE701988068B0F5805F1A
:1046200013D1FFE70198006978B9FFE70198006AA4
:104630000090009800886FF35F2001990968486036
:104640000199086A0230086208E0019A106A411C68
:1046500011620078019909684860FFE70199C88CE8
:104660000138C884000468B9FFE701980168C86888
:1046700020F08000C86001980168C86840F04000E0
:10468000C860FFE700208DF80B0003E002208DF8E2
:104690000B00FFE79DF80B0003B0704780B540F2B8
:1046A0001850C2F20000FEF75FF980BDFFE7FEE799
:1046B00081B08DF803009DF9030000280ED4FFE7B8
:1046C0009DF9031001F01F02012090404A094EF2AB
:1046D0000011CEF2000141F82200FFE701B070475F
:1046E0004EF60C50CEF200000068C0F30220704776
:1046F00082B08DF8070000919DF9070000280AD4C8
:10470000FFE7009800019DF907104EF20042CEF23B
:10471000000288540BE0009800019DF8071001F09A
:104720000F014EF61452CEF200028854FFE702B099
:104730007047000083B00290029800F007000090DC
:104740004EF60C51CEF200010868019001984FF628
:10475000FF02104001900198009A40EA02200022D6
:10476000C0F2FA52104301900198086003B07047FC
:1047700080B584B040F29450C2F20000009000F086
:104780004BFA40F2B050C2F20000019000F044FA3F
:10479000009840F2AC01C2F200010291FEF7CCFF9A
:1047A000019840F2B801C2F200010391FEF7C4FF84
:1047B000029890ED000A0020FEF7F4FE039890EDB9
:1047C000000A0120FEF7EEFE04B080BD86B0059021
:1047D0000598007A00F001008DF80B00059800683C
:1047E00001900598406800909DF80B00C0070028D4
:1047F0003FD1FFE79DED010AB5EE400AF1EE10FA58
:104800002DD0FFE79DED000AB5EE400AF1EE10FA5B
:104810000FDDFFE7019804909DED010A9DED002A50
:10482000B7EE001A31EE421A20EE010A8DED030AAE
:1048300014E09DED000AB1EE400A8DED000A9DEDF9
:10484000001AB7EE000A30EE410A9DED011A20EE83
:10485000010A8DED040A01980390FFE708E0009833
:1048600004909DED000AB1EE400A8DED030AFFE7CA
:10487000FFE79DF80B00C00700284BD0FFE79DED38
:10488000010A9DED001A30EE010AB7EE001AB4EEEF
:10489000410AF1EE10FA0EDDFFE79DED000A30EE61
:1048A000001AB7EE000A30EE410A8DED040A4FF00F
:1048B0007E5003902DE09DED010A9DED001A30EE33
:1048C000410ABFEE001AB4EE410AF1EE10FA0EDA18
:1048D000FFE74FF07E5004909DED000A30EE000A95
:1048E000BFEE001A30EE010A8DED030A10E09DEDD7
:1048F000010A9DED001A30EE410A8DED040A9DED8E
:10490000010A9DED001A30EE010A8DED030AFFE762
:10491000FFE7FFE704980599C860039805990861C7
:1049200006B0704781B08DED000A9DED000AB6EE2D
:10493000001AB4EE410AF1EE10FA04DDFFE74FF081
:104940007C500090FFE79DED000AB5EE400AF1EEC5
:1049500010FA03DAFFE700200090FFE79DED000A60
:104960009FED041A20EE010ABDEEC00A10EE100AF7
:1049700001B070470000C84280B5FBF769FD40F206
:10498000DC01C2F200010020087080BD81B08DF80A
:1049900003009DF80320002A18BF012240F2905125
:1049A000C2F200010878104008709DF80300421E12
:1049B00018BF012240F2AC51C2F200010878104049
:1049C000087001B07047000040F2C851C2F2000107
:1049D000002008707047000080B582B0ADF8060076
:1049E000BDF8060000F00CF800EE100AB8EEC00AA0
:1049F0009FED021A80EE010A02B080BD000048441B
:104A000081B0ADF80000BDF80000002812D4FFE727
:104A1000BDF800000F280DDCFFE7BDF8001040F2E4
:104A20007000C2F2000030F81100A0F57870ADF807
:104A3000020003E00020ADF80200FFE7BDF902002C
:104A400001B0704781B08DF802009DF8020050B9A6
:104A5000FFE740F29050C2F20000007800F0010041
:104A60008DF8030009E040F2AC50C2F2000000787B
:104A700000F001008DF80300FFE79DF8030001B08E
:104A80007047000040F2DC00C2F20000007800F045
:104A90000100704740F2C850C2F20000007800F0F8
:104AA0000100704780B582B000200190FBF7E2FF63
:104AB000FEF7E0FEFEF73AFBFEF7A2FBFEF756FC20
:104AC000FEF7DCFCFEF744FDFEF794FCFEF710FC5D
:104AD00000F044F900F016F800F02CF9FFE7FFF7BA
:104AE000D1FF28B1FFE7FFF747FF00F05BF8FFE7D2
:104AF000FFF7D0FF28B1FFE7FFF73AFEFFF764FFAB
:104B0000FFE7ECE780B588B040F29410C2F20000F5
:104B1000009000210291FDF7FFFC00980C21FDF7A9
:104B2000FBFC029940F26440C2F200000190FDF7E4
:104B3000F3FC01980421FDF7EFFC02990846FEF70B
:104B400087FD02990846FEF765FD02980121039151
:104B5000FEF77EFD02980399FEF75CFD40F2FC2013
:104B6000C2F20000059043F21D12C0F600020E21B1
:104B70000491FDF7CDFD049940F24820C2F20000F7
:104B8000079043F65D02C0F60002FDF7C1FD0598EF
:104B90003C210691FDF782F906990798FDF77EF909
:104BA00008B080BD80B582B00220FFF715FF40F24B
:104BB000C800C2F20000019080ED000A00200090C1
:104BC000FFF70AFF019880ED010A0620FFF718FFA2
:104BD000009902460198002AC8BF01210172FFF71F
:104BE000F5FD019890ED030A9FED0A1A20EE010AE7
:104BF00040F2AC01C2F2000181ED020A90ED040A1C
:104C000020EE010A40F2B800C2F2000080ED020A74
:104C100002B080BD0000C84380B586B005900598FD
:104C2000007CFEF733FDADF81200BDF812000599C7
:104C30008A88821A088810440880059840880328CA
:104C400009DCFFE70598008828B9FFE7059948883F
:104C50000130488060E00598007CFFF7F3FE48B122
:104C6000FFE705990888013008800598007CFFF768
:104C70008DFEFFE70598408800EB80010A2000EBDD
:104C80004100ADF810000598008800EE100AB8EE5B
:104C9000400ABDF8100001EE100AB8EE411A80EE8D
:104CA000010A8DED030A0598806802909DED030AC4
:104CB0009DED021A9FED193A21EE031A9FED182A75
:104CC00020EE020A30EE010A059880ED020A0598EE
:104CD00090ED020A90ED051A30EE410ABDF8100081
:104CE00001EE100AB8EE411A80EE010A8DED010ABC
:104CF0000598C06800909DED010A9DED001A21EE17
:104D0000031A20EE020A30EE010A059880ED030A2C
:104D1000059900204880FFE706B080BDCDCC4C3F10
:104D2000CDCC4C3E40F2C851C2F2000101200870C7
:104D30007047000080B582B040F2B030C2F200008F
:104D4000019044F62552C0F600020E21FDF7E0FC6A
:104D50000198FCF727FE02B080BD000080B582B04C
:104D600040F21850C2F20000019044F25532C0F6F1
:104D700000020321FEF72EF9019840F2C501C2F2AC
:104D800000010122FEF7FAF840F2C401C2F200016C
:104D90000020087002B080BDF1EE100A4FF6FF71DE
:104DA000C0F2C03120EA010040F04070E1EE100A8C
:104DB0007047000000000000000001020304060725
:104DC000080900000000010203040000F04D000883
:104DD0000000002010000000EC010008004E000858
:104DE00010000020C00B00000C02000800000000B2
:104DF0000024F4000100000010000000000000008A
:040000050800018965
:00000001FF
